:020000040800F2
:1000000000500020390300082503000827030008DA
:10001000290300082B0300082D030008000000003E
:100020000000000000000000000000002F03000896
:100030003103000800000000330300083503000806
:100040008103000881030008810300088103000880
:100050008103000881030008810300088103000870
:100060008103000881030008810300088103000860
:100070008103000881030008810300088103000850
:100080008103000881030008810300088103000840
:100090008103000881030008810300088103000830
:1000A0008103000881030008810300088103000820
:1000B0008103000881030008810300088103000810
:1000C0008103000881030008810300088103000800
:1000D00081030008810300088103000881030008F0
:1000E000810300088103000881030008000000006C
:1000F0000000000000000000000000000000000000
:0C01000000000000000000005FF808F1A3
:10010C0010B5054C237833B9044B13B10448AFF345
:10011C0000800123237010BD340400200000000077
:10012C001806000808B5034B1BB103490348AFF38D
:10013C00008008BD000000003804002018060008EC
:10014C0000B589B00023039304930593069307939A
:10015C0003F1804303F504339A6942F010029A616B
:10016C009A6902F010020292029A9A6942F02002F5
:10017C009A619A6902F020020192019A9A6942F0FE
:10018C0004029A619B6903F004030093009B0848E6
:10019C004FF400534361074B039301230493022351
:1001AC00059303A900F0E7F809B05DF804FB00BF64
:1001BC00001001402000200410B5254A136823F0DC
:1001CC00070343F002031360214B1B6803F0070382
:1001DC00022BF9D11F4A136843F4803313601D4B73
:1001EC001B6813F4003FFAD01A4A536823F47C13AB
:1001FC0043F4E8135360136843F080731360154B9A
:10020C001B6813F0007FFAD0124B5A6822F0F002F0
:10021C005A605A6822F4E06242F480625A605A686A
:10022C0022F460525A605A6822F0030242F0020231
:10023C005A60084B5B6803F00C03082BF9D1064C91
:10024C00204600F023F9204600F046F910BD00BF0F
:10025C00002002400010024000A24A0400B583B006
:10026C00284B9A6942F001029A619A6902F00102E4
:10027C000192019ADA6942F08052DA61DB6903F08B
:10028C0080530093009B204BD96821F4E061090452
:10029C00090C1E4A0A43DA60DA68C2F30222C2F180
:1002AC000703042B28BF04231946131D062B26D93C
:1002BC00033A4FF0FF338B40DB4303F00F039340C3
:1002CC001B01DBB2104A82F82330114A536823F029
:1002DC00E06343F000735360FFF76EFFFFF730FFEE
:1002EC000C49CB681A0402F00052DB4303F40053B0
:1002FC0013430B614FF4FA7000F0D8F8F0E70022CA
:10030C00D7E700BF0010024000ED00E00003FA0543
:10031C000000014000100140FEE7FEE7FEE7FEE7AB
:10032C00FEE770477047704770477047FFF7FDFF57
:10033C000B480C490C4A002302E0D458C450043337
:10034C00C4188C42F9D3094A094C002301E013600C
:10035C000432A242FBD300F0C5F8FFF77FFF7047D1
:10036C000000002034040020400600083404002063
:10037C0054040020FEE70B68C3F30F2C9CFAACF27C
:10038C00B2FA82F276E0A2F108044FF00113A34016
:10039C0043F080634C68082C2CD01D0E93FAA3F408
:1003AC00B4FA84F4A4004FF00F0E0EFA04F446597C
:1003BC0026EA040493FAA3FEBEFA8EFE4FEA8E0ED2
:1003CC004E6806FA0EFE44EA0E0444514C68012CA9
:1003DC001ED0092C1CD001323CFA02F347D0012369
:1003EC00934013EA0C0FF6D0072ACCD840F2011335
:1003FC009340CFE70D69C6681C0A26EA132694FAC7
:10040C00A4F4B4FA84F405FA04F43443C460C4E7E5
:10041C004FEA136E50F80E4093FAA3F5B5FA85F532
:10042C00AD00032606FA05F524EA050493FAA3F5B4
:10043C00B5FA85F5AD008E6806FA05F5254340F84A
:10044C000E50CC6893FAA3F6B6FA86F6B6000427DB
:10045C0007FA06F625EA060593FAA3F3B3FA83F333
:10046C009B0004FA03F32B4340F80E30B3E7002053
:10047C00F0BD01323CFA02F306D00123934013EA9B
:10048C000C0FF6D0F0B5AFE700207047064BA3FB7E
:10049C0000239B09013B4FF0E02253610023936141
:1004AC0005231361704700BFD34D621082B04FF02B
:1004BC00E0231B690193019BB0F1FF3F00D0013099
:1004CC0038B14FF0E0231B6913F4803FF8D00138AA
:1004DC00F6E702B070470000014B1860704700BF90
:1004EC000000002070B50D4E0D4D761BB61006D0D9
:1004FC00002455F8043B01349847A642F9D1094E23
:10050C00094D00F083F8761BB61006D0002455F880
:10051C00043B01349847A642F9D170BD340600085B
:10052C00340600083C06000834060008024B13B1E0
:10053C00024800F005B8704700000000590500089B
:10054C00002301461A46184600F01AB838B5084B75
:10055C00084D5B1B9C1007D0043B1D44013C55F817
:10056C0004399847002CF9D1BDE8384000F054B854
:10057C00400600083C060008704700BF704700BFEB
:10058C002DE9F047DFF87CA00646DAF80000984623
:10059C000F469146FFF7F0FF1B4B1B68D3F8484101
:1005AC0024B365681F2D26DC5EB96B1C0235DAF8A6
:1005BC000000636044F82570FFF7E0FF0020BDE801
:1005CC00F087012304EB8501C1F88890D4F88821C9
:1005DC00AB401A43022EC4F88821C1F80881E4D13B
:1005EC00D4F88C211343C4F88C31DEE703F5A674E0
:1005FC00C3F84841D5E7DAF80000FFF7BFFF4FF02A
:10060C00FF30DCE73004002030060008F8B500BFEE
:10061C00F8BC08BC9E467047F8B500BFF8BC08BCD7
:04062C009E4670472F
:04063000080000209E
:0806340039050008310100083E
:04063C000D010008A4
:100640000024F4000000000000000000F40200207C
:100650005C030020C4030020000000000000000034
:10066000000000000000000000000000000000008A
:10067000000000000000000000000000000000007A
:10068000000000000000000000000000000000006A
:10069000000000000000000000000000000000005A
:1006A000000000000000000000000000000000004A
:1006B000000000000000000000000000000000003A
:1006C000000000000000000000000000000000002A
:1006D000000000000000000000000000000000001A
:1006E000000000000000000000000000000000000A
:1006F00001000000000000000E33CDAB34126DE6A7
:10070000ECDE05000B00000000000000000000000F
:1007100000000000000000000000000000000000D9
:1007200000000000000000000000000000000000C9
:1007300000000000000000000000000000000000B9
:1007400000000000000000000000000000000000A9
:040A7000500400200E
:0400000508000339B3
:00000001FF
