:020000040800F2
:1000000000500020E1040008CD040008CF040008DF
:10001000D1040008D3040008D50400080000000043
:10002000000000000000000000000000D7040008ED
:10003000D904000800000000DB040008DD0400080B
:1000400029050008290500082905000829050008D8
:1000500029050008290500082905000829050008C8
:1000600029050008290500082905000829050008B8
:1000700029050008290500082905000829050008A8
:100080002905000829050008290500082905000898
:100090002905000829050008290500082905000888
:1000A0002905000829050008290500082905000878
:1000B0002905000829050008290500082905000868
:1000C0002905000829050008290500082905000858
:1000D0002905000829050008290500082905000848
:1000E000290500082905000829050008000000006E
:1000F0000000000000000000000000000000000000
:0C01000000000000000000005FF808F1A3
:10010C0010B5054C237833B9044B13B10448AFF345
:10011C0000800123237010BD340400200000000077
:10012C009C09000808B5034B1BB103490348AFF306
:10013C00008008BD00000000380400209C09000865
:10014C0000B58BB00023059306930793089309938E
:10015C0003F1804303F504339A6942F010029A616B
:10016C009A6902F010020492049A9A6942F02002F1
:10017C009A619A6902F020020392039A9A6942F0FA
:10018C0004029A619A6902F004020292029A9A6934
:10019C0042F008029A619B6903F008030193019BEA
:1001AC0007484FF400534361064B05930123069314
:1001BC000223079305A900F0B2F90BB05DF804FB1C
:1001CC00001001402000200430B58FB000240894AA
:1001DC0009940A940B940C940D9403940494059430
:1001EC0006940794234DAB6943F00803AB61AB69EC
:1001FC0003F008030293029B4CF2C0030393092300
:10020C000493032305930423069303A91A4800F0CF
:10021C0086F9EB6943F40013EB61EB6903F400130B
:10022C000193019BA5F5DE35EB6823F00103EB6030
:10023C002B6823F040032B602B6823F080032B608A
:10024C0008940E4B09930A940B944FF480630C930F
:10025C004FF480430D9308A9284600F0EBF9EB68A6
:10026C0023F0FE03EB602B6843F001032B600FB00F
:10027C0030BD00BF00100240000C0140A086010000
:10028C0030B583B004460D46314B1A6842F001027A
:10029C001A601A6842F480721A602D4B5B6913F075
:1002AC00010FFAD06300DBB229490A6922F0FF0280
:1002BC0013430B61052000F0B1FA254B5B6913F079
:1002CC00020FFAD0224B5A690092009A9A69009256
:1002DC00009A196921F0FF010D431D611C4B5B69EC
:1002EC0013F0800FFAD01A4A136843F4807313602A
:1002FC00174B5B6913F0010FFAD0630043F0010355
:10030C00DBB213490A6922F0FF0213430B6105208B
:10031C0000F084FA0E4B5B6913F0020FFAD00C4B11
:10032C005A690192019A9B690193019B084B5B6985
:10033C0013F0400FFAD0064B18691A6822F4806249
:10034C001A601A6842F400721A60C0B203B030BD71
:10035C000054004010B5254A136823F0070343F0FE
:10036C0002031360214B1B6803F00703022BF9D126
:10037C001F4A136843F4803313601D4B1B6813F43E
:10038C00003FFAD01A4A536823F47C1343F4E81361
:10039C005360136843F080731360154B1B6813F0A4
:1003AC00007FFAD0124B5A6822F0F0025A605A6859
:1003BC0022F4E06242F480625A605A6822F460527D
:1003CC005A605A6822F0030242F002025A60084B4B
:1003DC005B6803F00C03082BF9D1064C204600F0A7
:1003EC000DFA204600F030FA10BD00BF002002408C
:1003FC000010024000A24A0400B583B02B4B9A694E
:10040C0042F001029A619A6902F001020192019A8A
:10041C00DA6942F08052DA61DB6903F080530093B1
:10042C00009B234BD96821F4E0610904090C214A93
:10043C000A43DA60DA68C2F30222C2F10703042B22
:10044C0028BF04231946131D062B2CD9033A4FF051
:10045C00FF338B40DB4303F00F0393401B01DBB2F4
:10046C00134A82F82330144A536823F0E06343F0B4
:10047C0000735360FFF76EFFFFF762FEFFF7A4FEF9
:10048C00052000F0CBF900F0E5F90C49CB681A0413
:10049C0002F00052DB4303F4005313430B6164205E
:1004AC0000F0BCF9ECE70022D1E700BF00100240DD
:1004BC0000ED00E00003FA050000014000100140CF
:1004CC00FEE7FEE7FEE7FEE7FEE770477047704782
:1004DC0070477047FFF7FDFF0B480C490C4A00238F
:1004EC0002E0D458C4500433C4188C42F9D3094ADE
:1004FC00094C002301E013600432A242FBD300F04C
:10050C00B3F9FFF779FF7047000000203404002096
:10051C00DC0900083404002058040020FEE70B68B6
:10052C00C3F30F2C9CFAACF2B2FA82F276E0A2F191
:10053C0008044FF00113A34043F080634C68082C6F
:10054C002CD01D0E93FAA3F4B4FA84F4A4004FF04B
:10055C000F0E0EFA04F4465926EA040493FAA3FE8D
:10056C00BEFA8EFE4FEA8E0E4E6806FA0EFE44EA76
:10057C000E0444514C68012C1ED0092C1CD00132A5
:10058C003CFA02F347D00123934013EA0C0FF6D048
:10059C00072ACCD840F201139340CFE70D69C66807
:1005AC001C0A26EA132694FAA4F4B4FA84F405FA85
:1005BC0004F43443C460C4E74FEA136E50F80E40A1
:1005CC0093FAA3F5B5FA85F5AD00032606FA05F501
:1005DC0024EA050493FAA3F5B5FA85F5AD008E6807
:1005EC0006FA05F5254340F80E50CC6893FAA3F6AD
:1005FC00B6FA86F6B600042707FA06F625EA0605CB
:10060C0093FAA3F3B3FA83F39B0004FA03F32B439B
:10061C0040F80E30B3E70020F0BD01323CFA02F393
:10062C0006D00123934013EA0C0FF6D0F0B5AFE7D8
:10063C0000207047F0B585B004460D46036823F0E2
:10064C0001030360684600F0C9F8029A6B68AE6853
:10065C003648A0FB021C4FEA9C41606820F03F002A
:10066C0040EA9C406060206A20F03F00304FBB4263
:10067C0037D80131014321622D498B424DD9002ECF
:10068C0039D103EB4303B2FBF3F2C2F30B03002BA0
:10069C003DD042F4004246EA0203E26922F44F42A2
:1006AC0022F0FF021A43E261EA686969A36823F445
:1006BC00034323F0FF030A431343A3602B68226810
:1006CC0022F01A0213432360236843F001032360D2
:1006DC002B69226822F4806213432360002005B04A
:1006EC00F0BD4FF4967707FB01F1124FA7FB017198
:1006FC0089090131BEE703EB830303EB8303B2FBF0
:10070C00F3F2C2F30B032BB142F40042C3E748F2FD
:10071C000102C0E748F20102BDE75B00B2FBF3F354
:10072C0040F6FC721342B8D10423B6E783DE1B43B8
:10073C00A0860100D34D6210034B5B68C3F3031317
:10074C00024AD35CD840704700100240B40900083C
:10075C00034B5B68C3F30223024AD35CD840704757
:10076C0000100240C4090008034B5B68C3F3C223AA
:10077C00024AD35CD840704700100240C4090008FC
:10078C000B4B5B6803F4803343B90A48084B5B6836
:10079C00C3F38343023303FB00F07047044B5868E8
:1007AC00C0F34040431C0448B0FBF3F0EEE700BF3D
:1007BC000010024000093D0000127A0008B5054BFC
:1007CC005B6803F00C03082B01D0034808BDFFF74E
:1007DC00D7FFFBE70010024000127A0010B5044668
:1007EC00FFF7ECFF2060FFF7A7FF6060FFF7B0FF9B
:1007FC00A0606068FFF7B8FFE06010BD064BA3FB7C
:10080C0000239B09013B4FF0E022536100239361CD
:10081C0005231361704700BFD34D621082B04FF0B7
:10082C00E0231B690193019BB0F1FF3F00D0013025
:10083C0038B14FF0E0231B6913F4803FF8D0013836
:10084C00F6E702B070470000014B1860704700BF1C
:10085C000000002008B50E213620FFF711FD014BDA
:10086C00187008BD5004002070B50D4E0D4D761B50
:10087C00B61006D0002455F8043B01349847A64224
:10088C00F9D1094E094D00F083F8761BB61006D04D
:10089C00002455F8043B01349847A642F9D170BDA9
:1008AC00D0090008D0090008D8090008D0090008B0
:1008BC00024B13B1024800F005B87047000000006D
:1008CC00DD080008002301461A46184600F01AB845
:1008DC0038B5084B084D5B1B9C1007D0043B1D44DE
:1008EC00013C55F804399847002CF9D1BDE8384043
:1008FC0000F054B8DC090008D8090008704700BFA4
:10090C00704700BF2DE9F047DFF87CA00646DAF807
:10091C00000098460F469146FFF7F0FF1B4B1B68F3
:10092C00D3F8484124B365681F2D26DC5EB96B1CD7
:10093C000235DAF80000636044F82570FFF7E0FF39
:10094C000020BDE8F087012304EB8501C1F88890F5
:10095C00D4F88821AB401A43022EC4F88821C1F880
:10096C000881E4D1D4F88C211343C4F88C31DEE730
:10097C0003F5A674C3F84841D5E7DAF80000FFF791
:10098C00BFFF4FF0FF30DCE730040020CC0900083B
:10099C00F8B500BFF8BC08BC9E467047F8B500BF60
:0809AC00F8BC08BC9E46704730
:1009B400000000000000000001020304060708090B
:0C09C400000000000102030408000020F5
:0809D000BD0800083101000818
:0409D8000D01000805
:1009DC000024F4000000000000000000F4020020DD
:1009EC005C030020C4030020000000000000000095
:1009FC0000000000000000000000000000000000EB
:100A0C0000000000000000000000000000000000DA
:100A1C0000000000000000000000000000000000CA
:100A2C0000000000000000000000000000000000BA
:100A3C0000000000000000000000000000000000AA
:100A4C00000000000000000000000000000000009A
:100A5C00000000000000000000000000000000008A
:100A6C00000000000000000000000000000000007A
:100A7C00000000000000000000000000000000006A
:100A8C0001000000000000000E33CDAB34126DE607
:100A9C00ECDE05000B000000000000000000000070
:100AAC00000000000000000000000000000000003A
:100ABC00000000000000000000000000000000002A
:100ACC00000000000000000000000000000000001A
:100ADC00000000000000000000000000000000000A
:040E0C00540400206A
:04000005080004E10A
:00000001FF
