:020000040800F2
:100000000050002091170008D9140008DB140008E4
:10001000DD140008DF140008E114000800000000EF
:10002000000000000000000000000000E3140008D1
:10003000E514000800000000E7140008E9140008B7
:10004000D9170008D9170008D9170008D9170008D0
:10005000D9170008D9170008D9170008D9170008C0
:10006000D9170008D9170008D9170008F11400089B
:10007000D9170008D9170008D9170008D9170008A0
:10008000D9170008D9170008D9170008D917000890
:10009000D9170008D9170008D9170008D917000880
:1000A000D917000801150008D9170008D91700084A
:1000B000D9170008D9170008D9170008D917000860
:1000C000D9170008D9170008D9170008D917000850
:1000D000D9170008D9170008D9170008D917000840
:1000E000D9170008D9170008D91700080000000028
:1000F0000000000000000000000000000000000000
:0C01000000000000000000005FF808F1A3
:1001100010B5054C237833B9044B13B10448AFF341
:1001200000800123237010BD3C040020000000006B
:100130009C5F000808B5034B1BB103490348AFF3AC
:10014000008008BD00000000400400209C5F000803
:1001500081F0004102E000BF83F0004330B54FEA78
:1001600041044FEA430594EA050F08BF90EA020FE5
:100170001FBF54EA000C55EA020C7FEA645C7FEA78
:10018000655C00F0E2804FEA5454D4EB5555B8BF9B
:100190006D420CDD2C4480EA020281EA030382EA0C
:1001A000000083EA010180EA020281EA0303362D9E
:1001B00088BF30BD11F0004F4FEA01314FF4801C71
:1001C0004CEA113102D0404261EB410113F0004F83
:1001D0004FEA03334CEA133302D0524263EB43033A
:1001E00094EA050F00F0A780A4F10104D5F1200ED8
:1001F0000DDB02FA0EFC22FA05F2801841F1000133
:1002000003FA0EF2801843FA05F359410EE0A5F106
:1002100020050EF1200E012A03FA0EFC28BF4CF037
:10022000020C43FA05F3C01851EBE37101F00045ED
:1002300007D54FF0000EDCF1000C7EEB00006EEBFA
:100240000101B1F5801F1BD3B1F5001F0CD3490884
:100250005FEA30004FEA3C0C04F101044FEA4452DB
:1002600012F5800F80F09A80BCF1004F08BF5FEA62
:10027000500C50F1000041EB045141EA050130BD42
:100280005FEA4C0C404141EB0101013C28BFB1F554
:10029000801FE9D291F0000F04BF01460020B1FA9F
:1002A00081F308BF2033A3F10B03B3F120020CDA72
:1002B0000C3208DD02F1140CC2F10C0201FA0CF050
:1002C00021FA02F10CE002F11402D8BFC2F1200CB5
:1002D00001FA02F120FA0CFCDCBF41EA0C0190406B
:1002E000E41AA2BF01EB0451294330BD6FEA0404B4
:1002F0001F3C1CDA0C340EDC04F11404C4F120029F
:1003000020FA04F001FA02F340EA030021FA04F3B0
:1003100045EA030130BDC4F10C04C4F1200220FA07
:1003200002F001FA04F340EA0300294630BD21FA45
:1003300004F0294630BD94F0000F83F4801306BF0B
:1003400081F480110134013D4EE77FEA645C18BFFF
:100350007FEA655C29D094EA050F08BF90EA020F96
:1003600005D054EA000C04BF1946104630BD91EA8E
:10037000030F1EBF0021002030BD5FEA545C05D191
:100380004000494128BF41F0004130BD14F58004D0
:100390003CBF01F5801130BD01F0004545F0FE4144
:1003A00041F470014FF0000030BD7FEA645C1ABF79
:1003B000194610467FEA655C1CBF0B46024650EAB0
:1003C000013406BF52EA033591EA030F41F40021DC
:1003D00030BD00BF90F0000F04BF0021704730B562
:1003E0004FF4806404F132044FF000054FF0000137
:1003F00050E700BF90F0000F04BF0021704730B5F8
:100400004FF4806404F1320410F0004548BF4042CC
:100410004FF000013EE700BF42004FEAE2014FEA21
:1004200031014FEA02701FBF12F07F4393F07F4FFC
:1004300081F06051704732F07F4208BF704793F0FF
:100440007F4F04BF41F40021704730B54FF4607412
:1004500001F0004521F000411CE700BF50EA010215
:1004600008BF704730B54FF000050AE050EA0102BE
:1004700008BF704730B511F0004502D5404261EB2E
:1004800041014FF4806404F132045FEA915C3FF46F
:10049000D8AE4FF003025FEADC0C18BF03325FEA0C
:1004A000DC0C18BF033202EBDC02C2F1200300FABD
:1004B00003FC20FA02F001FA03FE40EA0E0021FAE2
:1004C00002F11444BDE600BF4FEA4102B2F1E0433D
:1004D00024BFB3F5001CDCF1FE5C0DD901F0004C2B
:1004E0004FEAC0024CEA5070B2F1004F40EB83007B
:1004F00008BF20F00100704711F0804F21D113F1A7
:100500003872BCBF01F00040704741F480114FEADF
:100510005252C2F11802C2F1200C10FA0CF320FA68
:1005200002F018BF40F001004FEAC1234FEAD32385
:1005300003FA0CFC40EA0C0023FA02F34FEA4303EF
:10054000CCE77FEA625307D150EA01331EBF4FF078
:10055000FE4040F44000704701F0004040F0FE4093
:1005600040F40000704700BF80F0004002E000BF90
:1005700081F0004142001FBF5FEA410392EA030F8E
:100580007FEA226C7FEA236C6AD04FEA1262D2EBD8
:100590001363C1BFD218414048404140B8BF5B42DD
:1005A000192B88BF704710F0004F40F4000020F076
:1005B0007F4018BF404211F0004F41F4000121F08C
:1005C0007F4118BF494292EA030F3FD0A2F10102D6
:1005D00041FA03FC10EB0C00C3F1200301FA03F114
:1005E00000F0004302D5494260EB4000B0F5000F37
:1005F00013D3B0F1807F06D340084FEA310102F1F6
:100600000102FE2A51D2B1F1004F40EBC25008BFA7
:1006100020F0010040EA03007047490040EB000071
:10062000013A28BFB0F5000FEDD2B0FA80FCACF172
:10063000080CB2EB0C0200FA0CF0AABF00EBC2509F
:1006400052421843BCBFD0401843704792F0000F8D
:1006500081F4000106BF80F400000132013BB5E7E0
:100660004FEA41037FEA226C18BF7FEA236C21D056
:1006700092EA030F04D092F0000F08BF08467047BB
:1006800090EA010F1CBF0020704712F07F4F04D189
:10069000400028BF40F00040704712F100723CBF9C
:1006A00000F50000704700F0004343F0FE4040F4C6
:1006B000000070477FEA226216BF08467FEA236384
:1006C0000146420206BF5FEA412390EA010F40F46F
:1006D000800070474FF0000304E000BF10F00043BB
:1006E00048BF40425FEA000C08BF704743F09643A2
:1006F00001464FF000001CE050EA010208BF7047BD
:100700004FF000030AE000BF50EA010208BF704743
:1007100011F0004302D5404261EB41015FEA010C58
:1007200002BF84460146002043F0B64308BFA3F150
:100730008053A3F50003BCFA8CF2083AA3EBC25332
:1007400010DB01FA02FC634400FA02FCC2F1200251
:10075000BCF1004F20FA02F243EB020008BF20F088
:100760000100704702F1200201FA02FCC2F12002EE
:1007700050EA4C0021FA02F243EB020008BF20EAE3
:10078000DC7070474FF0FF0C1CEAD0521EBF1CEA11
:10079000D15392EA0C0F93EA0C0F6FD01A4480EAFF
:1007A000010C400218BF5FEA41211ED04FF00063E8
:1007B00043EA501043EA5111A0FB01310CF0004014
:1007C000B1F5000F3EBF490041EAD3715B0040EA3A
:1007D000010062F17F02FD2A1DD8B3F1004F40EB0A
:1007E000C25008BF20F00100704790F0000F0CF0DD
:1007F000004C08BF49024CEA502040EA51207F3AA1
:10080000C2BFD2F1FF0340EAC250704740F400007B
:100810004FF00003013A5DDC12F1190FDCBF00F06C
:1008200000407047C2F10002410021FA02F1C2F11A
:10083000200200FA02FC5FEA310040F1000053EAB6
:100840004C0308BF20EADC70704792F0000F00F004
:10085000004C02BF400010F4000F013AF9D040EA0A
:100860000C0093F0000F01F0004C02BF490011F49E
:10087000000F013BF9D041EA0C018FE70CEAD1539C
:1008800092EA0C0F18BF93EA0C0F0AD030F0004C1C
:1008900018BF31F0004CD8D180EA010000F00040D0
:1008A000704790F0000F17BF90F0004F084691F08E
:1008B000000F91F0004F14D092EA0C0F01D14202C8
:1008C0000FD193EA0C0F03D14B0218BF084608D191
:1008D00080EA010000F0004040F0FE4040F40000DB
:1008E000704740F0FE4040F4400070474FF0FF0C6E
:1008F0001CEAD0521EBF1CEAD15392EA0C0F93EAB5
:100900000C0F69D0A2EB030280EA010C49024FEA06
:10091000402037D04FF0805343EA111143EA1013BF
:100920000CF000408B4238BF5B0042F17D024FF477
:10093000000C8B4224BF5B1A40EA0C00B3EB510F52
:1009400024BFA3EB510340EA5C00B3EB910F24BF3B
:10095000A3EB910340EA9C00B3EBD10F24BFA3EBC0
:10096000D10340EADC001B0118BF5FEA1C1CE0D188
:10097000FD2A3FF650AF8B4240EBC25008BF20F03B
:10098000010070470CF0004C4CEA50207F32C2BF8F
:10099000D2F1FF0340EAC250704740F400004FF02C
:1009A0000003013A37E792F0000F00F0004C02BF5D
:1009B000400010F4000F013AF9D040EA0C0093F027
:1009C000000F01F0004C02BF490011F4000F013B81
:1009D000F9D041EA0C0195E70CEAD15392EA0C0FE9
:1009E00008D142027FF47DAF93EA0C0F7FF470AF21
:1009F000084676E793EA0C0F04D14B023FF44CAF64
:100A000008466EE730F0004C18BF31F0004CCAD1F8
:100A100030F000427FF45CAF31F000437FF43CAF34
:100A20005FE700BF4FF0FF3C06E000BF4FF0010C56
:100A300002E000BF4FF0010C4DF804CD4FEA400238
:100A40004FEA41037FEA226C18BF7FEA236C11D082
:100A500001B052EA530C18BF90EA010F58BFB2EB35
:100A6000030088BFC81738BF6FEAE17018BF40F0B5
:100A7000010070477FEA226C02D15FEA402C05D169
:100A80007FEA236CE4D15FEA412CE1D05DF8040BEE
:100A9000704700BF844608466146FFE70FB5FFF781
:100AA000C9FF002848BF10F1000F0FBD4DF808ED39
:100AB000FFF7F4FF0CBF012000205DF808FB00BF2A
:100AC0004DF808EDFFF7EAFF34BF012000205DF884
:100AD00008FB00BF4DF808EDFFF7E0FF94BF0120D1
:100AE00000205DF808FB00BF4DF808EDFFF7D2FFCE
:100AF00094BF012000205DF808FB00BF4DF808ED11
:100B0000FFF7C8FF34BF012000205DF808FB00BFDD
:100B100042000ED2B2F1FE4F0BD34FF09E03B3EB67
:100B2000126209D44FEA002343F0004323FA02F093
:100B300070474FF00000704712F1610F01D142027F
:100B400002D14FF0FF3070474FF00000704700BFF8
:100B500070B54FF0FF0C4CF4E06C1CEA11541DBF53
:100B60001CEA135594EA0C0F95EA0C0F00F0DEF81E
:100B70002C4481EA030621EA4C5123EA4C5350EA03
:100B8000013518BF52EA033541F4801143F4801354
:100B900038D0A0FB02CE4FF00005E1FB02E506F0E5
:100BA0000042E0FB03E54FF00006E1FB03569CF03A
:100BB000000F18BF4EF0010EA4F1FF04B6F5007F40
:100BC00064F5407404D25FEA4E0E6D4146EB0606B2
:100BD00042EAC62141EA55514FEAC52040EA5E503B
:100BE0004FEACE2EB4F1FD0C88BFBCF5E06F1ED8E5
:100BF000BEF1004F08BF5FEA500E50F1000041EB1C
:100C0000045170BD06F0004646EA010140EA0200C8
:100C100081EA0301B4EB5C04C2BFD4EB0C0541EAEA
:100C2000045170BD41F480114FF0000E013C00F3FF
:100C3000AB8014F1360FDEBF002001F0004170BD23
:100C4000C4F10004203C35DA0C341BDC04F114043C
:100C5000C4F1200500FA05F320FA04F001FA05F2C8
:100C600040EA020001F0004221F0004110EBD37095
:100C700021FA04F642EB06015EEA430E08BF20EAC1
:100C8000D37070BDC4F10C04C4F1200500FA04F364
:100C900020FA05F001FA04F240EA020001F00041F6
:100CA00010EBD37041F100015EEA430E08BF20EA69
:100CB000D37070BDC4F1200500FA05F24EEA020EB1
:100CC00020FA04F301FA05F243EA020321FA04F0E0
:100CD00001F0004121FA04F220EA020000EBD37097
:100CE0005EEA430E08BF20EAD37070BD94F0000F97
:100CF0000FD101F00046400041EB010111F4801FCB
:100D000008BF013CF7D041EA060195F0000F18BF7B
:100D1000704703F00046520043EB030313F4801FB7
:100D200008BF013DF7D043EA0603704794EA0C0F71
:100D30000CEA135518BF95EA0C0F0CD050EA410687
:100D400018BF52EA4306D1D181EA030101F0004104
:100D50004FF0000070BD50EA410606BF104619462C
:100D600052EA430619D094EA0C0F02D150EA013638
:100D700013D195EA0C0F05D152EA03361CBF104679
:100D800019460AD181EA030101F0004141F0FE4118
:100D900041F470014FF0000070BD41F0FE4141F49C
:100DA000780170BD70B54FF0FF0C4CF4E06C1CEA9C
:100DB00011541DBF1CEA135594EA0C0F95EA0C0F51
:100DC00000F0A7F8A4EB050481EA030E52EA03350C
:100DD0004FEA013100F088804FEA03334FF080552D
:100DE00045EA131343EA12634FEA022245EA11155A
:100DF00045EA10654FEA00260EF000419D4208BF0B
:100E0000964244F1FD0404F5407402D25B084FEAB7
:100E10003202B61A65EB03055B084FEA32024FF463
:100E200080104FF4002CB6EB020E75EB030E22BFC0
:100E3000B61A754640EA0C005B084FEA3202B6EB80
:100E4000020E75EB030E22BFB61A754640EA5C002F
:100E50005B084FEA3202B6EB020E75EB030E22BFBF
:100E6000B61A754640EA9C005B084FEA3202B6EBC0
:100E7000020E75EB030E22BFB61A754640EADC007F
:100E800055EA060E18D04FEA051545EA16754FEAE1
:100E900006164FEAC30343EA52734FEAC2025FEAFF
:100EA0001C1CC0D111F4801F0BD141EA00014FF08E
:100EB00000004FF0004CB6E711F4801F04BF01435F
:100EC0000020B4F1FD0C88BFBCF5E06F3FF6AFAE7B
:100ED000B5EB030C04BFB6EB020C5FEA500C50F10B
:100EE000000041EB045170BD0EF0004E4EEA11318E
:100EF00014EB5C04C2BFD4EB0C0541EA045170BD95
:100F000041F480114FF0000E013C90E645EA060ED8
:100F10008DE60CEA135594EA0C0F08BF95EA0C0F06
:100F20003FF43BAF94EA0C0F0AD150EA01347FF44E
:100F300034AF95EA0C0F7FF425AF104619462CE725
:100F400095EA0C0F06D152EA03353FF4FDAE104688
:100F5000194622E750EA410618BF52EA43067FF4D9
:100F6000C5AE50EA41047FF40DAF52EA43057FF469
:100F7000EBAE12E74FF0FF3C06E000BF4FF0010C74
:100F800002E000BF4FF0010C4DF804CD4FEA410CD8
:100F90007FEA6C5C4FEA430C18BF7FEA6C5C1BD0A5
:100FA00001B050EA410C0CBF52EA430C91EA030F26
:100FB00002BF90EA020F0020704710F1000F91EA83
:100FC000030F58BF994208BF90422CBFD8176FEA51
:100FD000E37040F0010070474FEA410C7FEA6C5C1F
:100FE00002D150EA013C07D14FEA430C7FEA6C5C26
:100FF000D6D152EA033CD3D05DF8040B704700BF52
:101000008446104662468C461946634600E000BF9F
:1010100001B5FFF7B7FF002848BF10F1000F01BD71
:101020004DF808EDFFF7F4FF0CBF012000205DF83C
:1010300008FB00BF4DF808EDFFF7EAFF34BF0120C1
:1010400000205DF808FB00BF4DF808EDFFF7E0FF5A
:1010500094BF012000205DF808FB00BF4DF808EDAB
:10106000FFF7CEFF94BF012000205DF808FB00BF12
:101070004DF808EDFFF7C4FF34BF012000205DF8F4
:1010800008FB00BF4FEA410C7FEA6C5C02D150EADA
:10109000013C0AD14FEA430C7FEA6C5C02D152EA70
:1010A000033C02D14FF0000070474FF00100704741
:1010B0004FEA410212F5001215D211D56FF4787380
:1010C000B3EB625212D94FEAC12343F0004343EA23
:1010D000505311F0004F23FA02F018BF40427047FE
:1010E0004FF00000704750EA013005D111F0004088
:1010F00008BF6FF0004070474FF00000704700BF1E
:1011000000B585B000230193029303931E481F4A44
:1011100002604FF4807282600122027303754FF403
:101120006022C26143600323036100F09DFDF8B9B2
:1011300005230193012302930023039301A912487D
:1011400000F0E8FBB8B9042301930223029301A93C
:101150000D4800F0DFFB88B90623019303230293B7
:1011600001A9094800F0D6FB58B905B05DF804FBA9
:1011700000F020F9DCE700F01DF9E4E700F01AF9CF
:10118000EAE700F017F9F0E75804002000240140D6
:1011900010B586B00023029303930493059302686D
:1011A0001E4B9A4201D006B010BD044603F56C43B5
:1011B0009A6942F400729A619A6902F4007200928C
:1011C000009A9A6942F004029A619B6903F0040351
:1011D0000193019B702302930323039302A91048F8
:1011E00000F0DCFF0F48104B036000234360836076
:1011F0008022C2604FF4807202614FF480624261CB
:1012000020228261C36100F0B5FE18B9054B23624C
:101210005C62C8E700F0CEF8F8E700BF00240140A8
:1012200000080140880400200800024000B583B097
:101230000A4B5A6942F001025A615B6903F00103EB
:101240000193019B002211460B2000F023FE0B208E
:1012500000F058FE03B05DF804FB00BF0010024030
:101260002DE9F04188B00024049405940694079475
:10127000254B9A6942F010029A619A6902F01002B5
:101280000092009A9A6942F020029A619A6902F0EB
:1012900020020192019A9A6942F004029A619A69C5
:1012A00002F004020292029A9A6942F008029A61DC
:1012B0009B6903F008030393039BDFF850802246E9
:1012C0004FF40051404601F07BF8114D22460821B1
:1012D000284601F075F84FF4005304930127059751
:1012E00006940226079604A9404600F057FF0823FB
:1012F000049305970694079604A9284600F04EFF2C
:1013000008B0BDE8F08100BF0010024000100140AD
:101310000008014008B50B480B4B03600B4B4360C2
:1013200000238360C3604FF48042026143618361A4
:10133000C361036201F0B0FA00B908BD00F03AF8E9
:10134000FBE700BFCC04002000540040A086010051
:1013500010B586B0002302930393049305930268AB
:10136000114B9A4201D006B010BD104CA36943F056
:101370000803A361A36903F008030093009BC02343
:101380000293122303930323059302A9084800F054
:1013900005FFE36943F40013E361E36903F4001319
:1013A0000193019BDFE700BF0054004000100240A2
:1013B000000C014072B6FEE700B595B0282200216E
:1013C0000DEB020003F0C8F9002305930693079381
:1013D00008930993019302930393049301220A92C1
:1013E0004FF480330B930E920222119212934FF41A
:1013F000E01313930AA801F0ABFDC8B90F230593BE
:1014000002210691002307934FF48062089209930A
:1014100005A801F0CFFF68B9022301934FF4004300
:10142000039301A802F0A2F830B915B05DF804FBEF
:10143000FFF7C0FFFFF7BEFFFFF7BCFF08B500F0E6
:10144000F3F9FFF7B9FFFFF70BFFFFF7EFFEFFF729
:1014500061FFFFF755FE00F079F800F02BF90A481C
:1014600000F086FC03F044F9084802F029FA4FF432
:10147000967000F0FDF94FF40051054800F0A6FF0A
:1014800002F006FEF3E700BF58040020200500200C
:101490000010014082B00E4B9A6942F001029A613D
:1014A0009A6902F001020092009ADA6942F08052D1
:1014B000DA61DB6903F080530193019B054A5368AD
:1014C00023F0E06343F00073536002B0704700BF45
:1014D0000010024000000140FEE7FEE7FEE7FEE7E5
:1014E000FEE770477047704708B500F0AFF908BDD8
:1014F00008B5024800F0B0FD08BD00BF8804002018
:1015000010B5044C204602F02CFA23686FF001025B
:101510001A6110BD2005002008B5094B834200D098
:1015200008BD02F04DFD03F0A3F8064B9A684FF09A
:101530007E51002002F0EEFD02F042FEF0E700BF17
:1015400020050020040600207047000000B587B089
:101550000023029303930493059300930193174888
:10156000174A0260472242602022826040F2F31252
:10157000C26003614361836102F0EAFAA8B94FF4E3
:101580008053029302A90D4802F0E6FB80B90023C4
:10159000009301936946094802F0DAFC58B90748FC
:1015A00002F0C2F907B05DF804FBFFF703FFE6E7BE
:1015B000FFF700FFEBE7FFF7FDFEF0E72005002057
:1015C000002C014002680E4B9A4200D0704700B5D3
:1015D00083B003F564439A6942F400629A619B699F
:1015E00003F400630193019B00221146192000F0CF
:1015F00051FC192000F086FC03B05DF804FB00BF2D
:10160000002C01400368B3F1804F00D0704782B0D6
:1016100003F50433DA6942F00102DA61DB6903F0B1
:1016200001030193019B02B07047000010B586B022
:10163000002302930393049305930368B3F1804F4F
:1016400001D006B010BD03F504339A6942F00402DC
:101650009A619A6902F004020092009A9A6942F033
:1016600008029A619B6903F008030193019B03231D
:10167000029302240394059402A90B4800F08EFD06
:101680004FF4806302930394059402A9074800F085
:1016900085FD074A536823F4407343F0E06343F445
:1016A00000735360CDE700BF00080140000C01400B
:1016B0000000014000B58BB000230893099301930B
:1016C00002930393049305930693079322484FF0E4
:1016D00080420260472242602022826040F2F31280
:1016E000C2600361836102F05FFA28BB00230893A4
:1016F000099308A9184802F02BFC00BB6023019352
:10170000002202920392059201A9134802F0AAFA5C
:10171000C0B904220DEB02010F4802F0A3FAA0B9F0
:10172000082201A90C4802F09DFA88B90A48FFF77F
:101730007DFF0BB05DF804FBFFF73CFED6E7FFF73B
:1017400039FEDBE7FFF736FEE3E7FFF733FEE7E7B7
:10175000FFF730FEEAE700BF6805002010B5074C30
:101760000021204602F086FB0421204602F082FB85
:101770000821204602F07EFB10BD00BF6805002056
:10178000024B1B685A639963D86370476805002051
:10179000FFF7DAFE0B480C490C4A002302E0D4584C
:1017A000C4500433C4188C42F9D3094A094C0023AD
:1017B00001E013600432A242FBD302F0A9FFFFF75D
:1017C0003DFE7047000000203C040020F46100084A
:1017D0003C04002040060020FEE7000010B504464F
:1017E0000E4B18784FF47A73B3FBF0F30C4A106881
:1017F000B0FBF3F000F094FB68B90F2C01D9012085
:101800000AE0002221464FF0FF3000F043FB054B79
:101810001C60002000E0012010BD00BF040000207B
:10182000000000200800002008B5074A136843F0B4
:1018300010031360032000F01BFB0F20FFF7CEFF07
:10184000FFF728FE002008BD00200240034A11686F
:10185000034B1B780B441360704700BFB00500209A
:1018600004000020014B1868704700BFB00500203D
:1018700038B50446FFF7F6FF0546B4F1FF3F02D046
:10188000044B1B781C44FFF7EDFF401BA042FAD32A
:1018900038BD00BF04000020704708B5436A9A6A4B
:1018A00012F0500F1ED19A6A42F400729A621A68BE
:1018B000926802F46022B2F5602F03D01846FFF759
:1018C000EBFF08BD1A7B002AF8D19A6A22F48072D5
:1018D0009A629A6A12F4805FF0D19A6A42F0010229
:1018E0009A62EBE71B6A1B6B9847EAE7704708B5FB
:1018F000406AFFF7FBFF08BD704708B5406A836A7E
:1019000043F040038362C36A43F00403C362FFF7FA
:10191000F3FF08BD30B482B00022019290F8242079
:10192000012A00F091800346012280F824204A68B1
:10193000062A2DD80468606B02EB8202053A4FF04C
:101940001F0C0CFA02FC20EA0C000D6805FA02F2EA
:10195000024362630A68092A3AD91C68E06802EB0C
:1019600042021E3A4FF0070C0CFA02FC20EA0C006F
:101970008D6805FA02F20243E2600A68103A012A11
:1019800036D90020002283F8242002B030BC7047F2
:101990000C2A0ED80568286B02EB8202233A1F241A
:1019A000944020EA04000C6804FA02F202432A631D
:1019B000D0E70568E86A02EB8202413A1F249440AE
:1019C00020EA04000C6804FA02F20243EA62C1E76A
:1019D0001C68206902EB42024FF0070C0CFA02FC73
:1019E00020EA0C008D6805FA02F202432261C4E786
:1019F0001A681648824205D09A6A42F020029A621A
:101A00000120BFE7906810F4000F1BD1906840F4EC
:101A1000000090600A68102A01D00020B2E70C4A4A
:101A200012680C49A1FB0212920C02EB82025200D6
:101A3000019202E0019A013A0192019A002AF9D139
:101A400000209FE700209DE702209EE70024014040
:101A50000000002083DE1B4330B583B000230193D8
:101A600003689A6812F0010F33D104469A6842F075
:101A700001029A60184B1B68184AA2FB03239B0CB7
:101A8000019302E0019B013B0193019B002BF9D1E3
:101A9000FFF7E8FE054623689B6813F0010F16D197
:101AA000FFF7E0FE431B022BF5D923689B6813F078
:101AB000010FF0D1A36A43F01003A362E36A43F07D
:101AC0000103E362002384F82430012002E00020B7
:101AD00000E0002003B030BD0000002083DE1B4387
:101AE000F8B504460D46164601684448814259D06F
:101AF000434B994256D094F82430012B7CD00123DB
:101B000084F824302046FFF7A7FF074600286ED14F
:101B1000A16A21F4706121F0010141F48071A16298
:101B20002268374B9A4244D0A36A23F48013A362FD
:101B3000536813F4806F05D0A36A23F4405343F431
:101B40008053A362A36A13F4805F48D0E36A23F052
:101B50000603E362002384F82430236A294A9A6248
:101B6000236A294ADA62236A284A1A6323686FF0D3
:101B700002021A602268936843F4807393602168BC
:101B800033462A464C31206A00F02AFA23689A68C4
:101B900002F46022B2F5602F24D09A6842F48012D9
:101BA0009A6027E0154B5B6813F4702FA3D00127D0
:101BB00020E0A3F580635B6813F4702FB4D0A36AB0
:101BC00043F48013A3620D4B5B6813F4806FB9D0AC
:101BD000A36A23F4405343F48053A362B2E7002383
:101BE000E362B7E79A6842F4A0029A6002E0002339
:101BF00084F824303846F8BD0227FBE70024014072
:101C0000002801409B180008EF180008FB18000886
:101C100038B503689A6812F0010F01D1002038BD71
:101C200004469A6822F001029A60FFF71BFE0546FF
:101C300023689B6813F0010F13D0FFF713FE431BBB
:101C4000022BF5D923689B6813F0010FF0D0A36A2B
:101C500043F01003A362E36A43F00103E36201204F
:101C6000DDE70020DBE7000000287BD070B50446EC
:101C7000836A002B4DD02046FFF7CAFFA36A13F0FA
:101C8000100369D1002867D1A26A22F4885222F099
:101C9000020242F00202A2626268E1690A43217B09
:101CA00042EA4102A568B5F5807F02D0012D36D009
:101CB0001D46267D012E35D02668716821F46941C4
:101CC000294371602568AE68274931401143A960F6
:101CD000A168B1F5807F01D0012902D12369013BC0
:101CE0001B052568E96A21F470010B43EB62236848
:101CF00099681E4B0B409A4225D0A36A23F0120329
:101D000043F01003A362E36A43F00103E36201209E
:101D100027E0C36280F82430FFF73AFAABE74FF4CC
:101D20008075C6E731B9A169013945EA413141F40D
:101D30000065C1E7A16A41F02001A162E16A41F0BA
:101D40000101E162B8E70023E362A36A23F0030321
:101D500043F00103A36204E0A36A43F01003A3620B
:101D6000012070BD01207047FDF7E1FFFE0E1FFF4F
:101D700070B582B00023019390F82430012B72D00B
:101D80000446012380F82430FFF742FF2046FFF786
:101D900063FE054628B1002384F82430284602B0AB
:101DA00070BDA36A23F4885323F0020343F00203B7
:101DB000A3622E4B1E68022001F064FCB6FBF0F615
:101DC0007600019602E0019B013B0193019B002BF1
:101DD000F9D12268936843F008039360FFF742FD4E
:101DE000064623689A6812F0080F14D0FFF73AFDF0
:101DF000801B0A28F5D923689B6813F0080FF0D0E0
:101E0000A36A23F0120343F01003A362002384F8B3
:101E100024300125C2E79A6842F004029A60FFF775
:101E200021FD064623689B6813F0040F14D0FFF7CA
:101E300019FD801B0A28F5D923689B6813F0040F4D
:101E4000F0D0A36A23F0120343F01003A36200232F
:101E500084F824300125A1E7A36A23F0030343F0AB
:101E60000103A36297E7022598E700BF0000002066
:101E7000074AD36823F4E0631B041B0C000200F440
:101E8000E060034343F0BF6343F40033D360704723
:101E900000ED00E000B5194BDB68C3F30223C3F18A
:101EA000070CBCF1040F28BF4FF0040C03F1040E23
:101EB000BEF1060F18D9033B4FF0FF3E0EFA0CFCA3
:101EC00021EA0C0199400EFA03F322EA03031943B5
:101ED00000280BDB0901C9B200F1604000F5614048
:101EE00080F800135DF804FB0023E5E700F00F0025
:101EF0000901C9B2024B1954F4E700BF00ED00E03C
:101F000014ED00E0002807DB00F01F024009012368
:101F10009340024A42F82030704700BF00E100E0E1
:101F20000138B0F1807F0BD24FF0E0235861054AB1
:101F3000F02182F823100020986107221A6170476F
:101F40000120704700ED00E030B40124056CAC4086
:101F5000C56B6C60046863604368102B05D0036830
:101F600099600368DA6030BC704703689A60036860
:101F7000D960F8E760B310B402460168154B0B4412
:101F80001548A0FB03031B099B001364134BD36389
:101F9000022382F82130086820F47F5020F03000BE
:101FA000536894682343D4682343146923435469D2
:101FB000234394692343D469234303430B600020E4
:101FC0009063012382F8213082F8200010BC704712
:101FD00001207047F8FFFDBFCDCCCCCC0000024003
:101FE00038B5044690F82000012832D0012084F84A
:101FF000200094F82100C0B2012804D0002384F806
:102000002030022038BD022084F821000020A06387
:102010002568286820F0010028602046FFF794FF1B
:10202000E36A5BB12268136843F00E031360226811
:10203000136843F0010313600020E3E7226813688C
:1020400023F0040313602268136843F00A0313604B
:10205000EDE70220D6E7000038B5C36B1A680468C4
:102060002568016C04238B40134235D015F0040F12
:1020700032D0236813F0200F03D1236823F0040328
:1020800023600368434A934214D01432934218D019
:102090001432934217D01432934217D01432934221
:1020A00017D01432934202D04FF0806203E04FF415
:1020B000800200E00422384B5A60C36A03B198479B
:1020C00038BD4022F7E74FF48062F4E74FF48042D6
:1020D000F1E74FF48022EEE702238B4013423CD01D
:1020E00015F0020F39D0236813F0200F06D12368B2
:1020F00023F00A032360012380F821300368254A76
:10210000934214D0143293421CD0143293421BD009
:10211000143293421BD0143293421BD01432934298
:1021200002D04FF0007203E04FF4001200E00222F0
:10213000194B5A60002380F82030836A002BBFD0EF
:102140009847BDE72022F3E74FF40072F0E74FF421
:102150000052EDE74FF40032EAE7082303FA01F1F9
:102160001142ADD015F0080FAAD0236823F00E035A
:102170002360026CC16B012303FA02F24A6083639D
:1021800080F82130002380F82030036B002B97D09B
:10219000984795E7080002400000024070B582B001
:1021A0000024A446A6E0804DAA4210D007D97F4D56
:1021B000AA420CD005F58035AA4208D013E0A5F557
:1021C0008015AA4203D005F57025AA4207D18A6876
:1021D000002A58D0012A51D04361082403E0A5F514
:1021E0008015AA42F3D0BEF1FF0F4ED80646BEF1CD
:1021F000FF0F4CD84FEA8C0233680F25954023EA35
:10220000050304FA02F2134333604B6813F0805F56
:102210006ED0674B9A6942F001029A619B6903F0A4
:1022200001030193019B4FEA9C02951C614B53F8FB
:1022300025600CF003039D000F23AB4026EA030644
:102240005D4B984229D003F58063984200F08E8060
:1022500003F58063984200F08B8003F58063984219
:1022600019D004231AE0CC68BDE7CC680434BAE77F
:10227000CC680834B7E7CC680C34B4E703610824B1
:10228000B1E70024AFE70424ADE7061DAFE7ACF1EA
:1022900008029200B0E7032300E00023AB40334381
:1022A0000232444D45F822304B6813F4801F61D050
:1022B000424A936843EA0E0393604B6813F4001F8D
:1022C0005ED03E4AD36843EA0E03D3604B6813F4F2
:1022D000003F5BD0394A536843EA0E0353604B68B2
:1022E00013F4803F58D0354A136843EA0E03136055
:1022F0000CF1010C0A6832FA0CF353D0012303FAF3
:102300000CF302EA030E33EA0202F1D14A68122A00
:102310003FF649AF122A3FF666AF01A555F822F005
:10232000CF210008672200087122000883220008DC
:10233000E7210008E7210008E7210008E72100085D
:10234000E7210008E7210008E7210008E72100084D
:10235000E7210008E7210008E7210008E72100083D
:10236000E72100086B22000877220008012395E787
:10237000022393E7114A936823EA0E0393609CE7D4
:102380000E4AD36823EA0E03D3609FE70B4A5368D3
:1023900023EA0E035360A2E7084A136823EA0E03F8
:1023A0001360A5E702B070BD0000221000003110DC
:1023B00000100240000001400008014000040140FC
:1023C0000AB101617047090401617047C36801EAFD
:1023D000030221EA030141EA0241016170470368F7
:1023E0005A6912F4806F01D1002070476FF4806247
:1023F0005A6100230363202280F83D2080F83E309C
:10240000026C42F00402026480F83C300120704704
:102410002DE9F04106460C46174698463BE0FFF78B
:1024200021FA069BC01A404502D8B8F1000F32D1FC
:10243000012D18D033689B6924EA03039BB2B3FAD9
:1024400083F35B099F4226D100233363202286F861
:102450003D2086F83E30326C42F02002326486F82D
:102460003C30012027E033685B6924EA03039BB218
:10247000B3FA83F35B09E5E733685B6924EA030C8D
:102480001FFA8CFCBCFA8CFC4FEA5C1C674511D12E
:10249000B8F1FF3FC3D1C4F30745012DECD0336839
:1024A0009B6924EA030C1FFA8CFCBCFA8CFC4FEAF3
:1024B0005C1CEBE70020BDE8F0812DE9F843054600
:1024C0000E469046994653E01A6842F400721A602C
:1024D0002B686FF480625A6100232B63202285F8F9
:1024E0003D2085F83E302A6C42F004022A6485F8CB
:1024F0003C3001204AE0FFF7B5F9A0EB0900404568
:1025000002D8B8F1000F33D1012F17D02B689B6987
:1025100026EA03039BB2003B18BF012343B3002309
:102520002B63202285F83D2085F83E302A6C42F04E
:1025300020022A6485F83C30012027E02B685B6983
:1025400026EA03039BB2003B18BF0123E6E72B6892
:102550009C6926EA0404A4B2003C18BF0124A4B17B
:102560002B685A6912F4806FAED1B8F1FF3FC2D127
:10257000C6F30747012FEAD12B685C6926EA0404F9
:10258000A4B2003C18BF0124E9E70020BDE8F883AD
:10259000F0B583B004460D4616461F46C36A082BA5
:1025A0000DD0012B0BD013F5803F08D0036B122BFD
:1025B0000AD10268136843F48073136004E0226850
:1025C000136843F4807313600097334600224FF082
:1025D00001112046FFF71CFF80B92369B3F5804F36
:1025E00016D1236805F0FE051D613B4632461349AE
:1025F0002046FFF762FFF8B903B0F0BD23681B68FF
:1026000013F4807F02D04FF4007323640320F3E7B8
:10261000EB11226803F0060343F0F00313613B461D
:10262000324607492046FFF748FF18B92368EDB244
:102630001D61DAE70120DFE70120DDE7020001008C
:10264000080001002DE9F04184B004460D4616460D
:102650001F46C26A01680B6843F480630B60082A56
:102660000DD0012A0BD012F5803F08D0036B112B3F
:102670000AD10268136843F48073136004E022688F
:10268000136843F4807313600097334600224FF0C1
:1026900001112046FFF7BCFE98B92369B3F5804FBE
:1026A00019D1236845F00105EDB21D613B46324664
:1026B0002A492046FFF701FF00284CD104B0BDE8AD
:1026C000F08123681B6813F4807F02D04FF40073FD
:1026D00023640320F2E74FEAE51808F006082368B0
:1026E00048F0F0021A613B4632461D492046FFF78A
:1026F000E4FE08B10120E1E72368EDB21D613B462D
:10270000324616492046FFF7D8FE08B10120D5E72A
:1027100000220392236859690391996903910399EF
:10272000196841F480711960009733464FF0011128
:102730002046FFF76DFE20B9226848F0F1031361CF
:10274000B4E723681B6813F4807F02D04FF4007352
:1027500023640320B2E70120B0E700BF02000100BC
:102760000800010070B504460D46164623685B69F3
:1027700013F0800F21D12046FFF731FEF8B9B5F1F3
:10278000FF3FF3D0FFF76EF8801BA84201D8002D61
:10279000ECD123685B6913F0800FE7D1002323633A
:1027A000202284F83D2084F83E30226C42F0200242
:1027B000226484F83C30012000E0002070BD01203C
:1027C000FCE770B504460D46164623685B6913F0B6
:1027D000040F21D12046FFF702FEF8B9B5F1FF3F03
:1027E000F3D0FFF73FF8801BA84201D8002DECD1B1
:1027F00023685B6913F0040FE7D1002323632022D1
:1028000084F83D2084F83E30226C42F0200222649D
:1028100084F83C30012000E0002070BD0120FCE77E
:1028200070B504460D46164614E06FF010025A616A
:1028300000232363202284F83D2084F83E30226C5C
:10284000226484F83C30012025E023685B6913F0A2
:10285000400F10D02368586910F0400F1AD1586902
:1028600010F0100FE1D1FEF7FDFF801BA842ECD85D
:10287000002DEFD1E9E700232363202284F83D20D7
:1028800084F83E30226C42F02002226484F83C300E
:10289000012000E0002070BD002800F0CC8070B561
:1028A000044690F83D30002B77D0242384F83D3047
:1028B0002268136823F0010313602268136843F44D
:1028C000004313602268136823F40043136000F090
:1028D0002DFE62685A4B9A4264D85A4B98428CBF7C
:1028E00000230123002B40F0A8805749A1FB0031B1
:1028F0008B0C25686A6822F03F0242EA91426A60C6
:1029000021680A6A22F03F0266684D4DAE424FD8F8
:10291000013313430B622168CA6922F44F4222F04B
:10292000FF026668464B9E424CD8431E7600B3FBBE
:10293000F6F3013340F6FC70034278D0C3F30B0387
:102940001343CB6121680B6823F0C003E269206A5E
:10295000024313430B6021688B6823F4034323F085
:10296000FF032269E068024313438B602168CB6850
:1029700023F0FF036269A06902431343CB6022681E
:10298000136843F00103136000202064202384F8BF
:102990003D30206384F83E0070BD80F83C30FEF787
:1029A000D7FC82E7294B98428CBF0023012399E78B
:1029B0004FF4967505FB03F3254DA5FB03539B09C7
:1029C0000133A6E7A368BBB9451E06EB460CB5FB71
:1029D000FCF50135C5F30B05B5FA85F56D0945BB69
:1029E000C3B9013806EB4603B0FBF3F30133C3F37D
:1029F0000B0343F40043A3E7451E06EB860C0CEBE8
:102A00008C0CB5FBFCF50135C5F30B05B5FA85F566
:102A10006D09E4E7013806EB860303EB8303B0FBA3
:102A2000F3F30133C3F30B0343F4404388E7042378
:102A300086E7012384E7012070470120ACE700BF4F
:102A4000A08601007F841E0083DE1B43FF083D003B
:102A5000D34D62102DE9F04385B004460F469146F0
:102A600098460C9EFEF7FEFE054694F83D00C0B267
:102A7000202804D00227384605B0BDE8F083009531
:102A8000192301224F492046FFF7C2FC002840F0DD
:102A9000928094F83C30012B00F08F80012384F861
:102AA0003C3023681A6812F0010F03D11A6842F013
:102AB00001021A602268136823F400631360212363
:102AC00084F83D30102384F83E3000232364C4F89A
:102AD0002490A4F82A80638D23853B4BE3622B4628
:102AE000324639462046FFF753FD0746002866D197
:102AF0000023039323685A6903929B690393039B02
:102B000011E0236C042B01D00127B4E7226813687D
:102B100043F400731360F7E72A4631462046FFF777
:102B200050FE00282ED1238D002B36D02A46314668
:102B30002046FFF717FE0028E3D1626A2368127867
:102B40001A61606A431C6362618D89B2013989B27E
:102B50006185238D013B9BB223852268516911F069
:102B6000040FD9D0002BD7D043781361636A0133A7
:102B70006362638D9BB2013B9BB26385238D013BF6
:102B80002385C9E7236C042B01D0012773E7226852
:102B9000136843F400731360F7E72268136843F483
:102BA00000731360202384F83D30002384F83E3006
:102BB00084F83C305FE702275DE702275BE70127E7
:102BC00059E700BF020010000000FFFF2DE9F043AD
:102BD00089B004460F4691469846109E00230793FD
:102BE000FEF740FE054694F83D00C0B2202804D010
:102BF0000227384609B0BDE8F08300951923012269
:102C000080492046FFF704FC002840F07A8194F8C0
:102C10003C30012B00F07781012384F83C3023689D
:102C20001A6812F0010F03D11A6842F001021A600B
:102C30002268136823F400631360222384F83D3074
:102C4000102384F83E3000232364C4F82490A4F8B1
:102C50002A80638D23856C4BE3622B4632463946CE
:102C60002046FFF7EFFC0746002840F04E81238DF9
:102C70005BB9039323685A6903929A690392039A92
:102C80001A6842F400721A60F3E0012B0FD0022B95
:102C900021D02268136843F48063136000230693F5
:102CA00023685A6906929B690693069BE1E02268B5
:102CB000136823F48063136072B6002304932368BF
:102CC0005A6904929A690492049A1A6842F400724A
:102CD0001A6062B6CDE02268136843F400631360A3
:102CE00072B60023059323685A6905929A69059282
:102CF000059A1A6822F480621A6062B6B9E02A4620
:102D000031462046FFF78CFD002840F00081236803
:102D10001A69636A1A70636A01336362238D013B27
:102D20002385638D9BB2013B9BB26385A1E0009537
:102D30003346002235492046FFF76AFB002840F061
:102D4000EA802268136823F48063136072B62368F4
:102D50001A69636A1A70636A01336362238D013BE7
:102D60002385638D9BB2013B9BB26385284B1B6817
:102D7000DB08284AA2FB03231B0A03EB8303C3EBF4
:102D8000C30307930799013907910799002928D0B0
:102D900023685A6912F0040FF4D01A6842F40072E2
:102DA0001A6023681A69636A1A70636A013363627E
:102DB000238D013B2385638D9BB2013B9BB26385D1
:102DC00062B623681A69636A1A70636A01336362C0
:102DD000238D013B2385638D9BB2013B9BB26385B1
:102DE00047E000232363202284F83D2084F83E300E
:102DF000226C42F02002226462B684F83C30012743
:102E0000F7E600BF020010000000FFFF0400010011
:102E10000000002089B5F8142A4631462046FFF705
:102E2000FFFC002879D123681A69636A1A70636A03
:102E300001336362228D013A92B22285638D9BB287
:102E4000013B9BB263852368596911F0040F10D0D0
:102E5000032A48D023681A69636A1A70636A0133C7
:102E60006362238D013B2385638D9BB2013B9BB243
:102E70006385218D00293BD00329CDD801293FF45A
:102E80003EAF02297FF453AF009533460022244918
:102E90002046FFF7BDFA00283BD172B622681368BE
:102EA00043F40073136023681A69636A1A70636AD3
:102EB00001336362238D013B2385638D9BB2013B0C
:102EC0009BB2638562B623681A69636A1A70636A83
:102ED00001336362238D013B2385638D9BB2013BEC
:102EE0009BB26385C5E71A6822F480621A60B1E775
:102EF000202384F83D30002384F83E3084F83C30B1
:102F000077E6022775E6022773E6012771E60127B7
:102F10006FE601276DE601276BE6012769E600BF32
:102F20000400010082B0084B1B68084AA2FB03237F
:102F30005B0A00FB03F3019300BF019B5A1E019241
:102F4000002BF9D102B0704700000020D34D621071
:102F5000002800F0F18170B582B00446036813F0D8
:102F6000010F2CD0994B5B6803F00C03042B1DD090
:102F7000964B5B6803F00C03082B12D06368B3F523
:102F8000803F41D0002B55D103F1804303F504333A
:102F90001A6822F480321A601A6822F480221A60B9
:102FA00037E08A4B5B6813F4803FE7D0874B1B68A0
:102FB00013F4003F03D06368002B00F0BF81236847
:102FC00013F0020F75D0814B5B6813F00C0F5FD0CC
:102FD0007E4B5B6803F00C03082B54D02369002B55
:102FE00000F08A807A4B01221A60FEF73BFC05460E
:102FF000764B1B6813F0020F75D1FEF733FC401BB4
:103000000228F5D903209EE1704A136843F4803307
:103010001360636843B3FEF725FC05466B4B1B68E2
:1030200013F4003FCBD1FEF71DFC401B6428F5D9FB
:10303000032088E1B3F5A02F09D0644B1A6822F46D
:1030400080321A601A6822F480221A60E1E703F1E4
:103050008043A3F53C331A6842F480221A601A6850
:1030600042F480321A60D4E7FEF7FCFB0546574B6A
:103070001B6813F4003FA2D0FEF7F4FB401B64284A
:10308000F5D903205FE1514B5B6813F4803FA5D174
:103090004E4B1B6813F0020F03D02369012B40F045
:1030A0004F814A4A136823F0F803616943EAC10378
:1030B0001360236813F0080F33D0A369002B5CD092
:1030C000434B0122C3F88024FEF7CCFB05463F4B5F
:1030D0005B6A13F0020F21D1FEF7C4FB401B0228EC
:1030E000F5D903202FE1394A136823F0F803616909
:1030F00043EAC1031360DCE7354B00221A60FEF798
:10310000B1FB0546314B1B6813F0020FD1D0FEF71F
:10311000A9FB401B0228F5D9032014E10120FFF789
:1031200001FF236813F0040F00F09680274BDB6942
:1031300013F0805F34D1254BDA6942F08052DA61B6
:10314000DB6903F080530193019B0125214B1B6830
:1031500013F4807F26D0E368012B3DD0002B53D1A0
:1031600003F1804303F504331A6A22F001021A6264
:103170001A6A22F004021A6233E0154B0022C3F8E7
:103180008024FEF76FFB0546104B5B6A13F0020FBD
:10319000C7D0FEF767FB401B0228F5D90320D2E019
:1031A0000025D3E70B4A136843F480731360FEF7DE
:1031B00059FB0646074B1B6813F4807FCBD1FEF703
:1031C00051FB801B6428F5D90320BCE000100240AD
:1031D00000004242007000405F4A136A43F001035E
:1031E0001362E36833B3FEF73DFB06465A4B1B6A96
:1031F00013F0020F2FD1FEF735FB801B41F288330D
:103200009842F3D903209EE0052B09D0524B1A6A4D
:1032100022F001021A621A6A22F004021A62E0E73E
:103220004D4B1A6A42F004021A621A6A42F0010215
:103230001A62D6E7FEF716FB0646474B1B6A13F0E9
:10324000020F08D0FEF70EFB801B41F28833984234
:10325000F3D9032077E0E5B9E369002B72D03E4A49
:10326000526802F00C02082A56D0022B17D03B4BB2
:1032700000221A66FEF7F6FA0446374B1B6813F075
:10328000007F47D0FEF7EEFA001B0228F5D9032095
:1032900059E0314AD36923F08053D361DCE72F4BE7
:1032A00000221A66FEF7DEFA05462B4B1B6813F068
:1032B000007F06D0FEF7D6FA401B0228F5D903207E
:1032C00041E0236AB3F5803F1AD023494B6823F4C9
:1032D0007413226A606A024313434B601F4B01223E
:1032E0001A66FEF7BFFA04461B4B1B6813F0007FFB
:1032F0000ED1FEF7B7FA001B0228F5D9032022E011
:10330000154A536823F40033A1680B435360DCE78C
:10331000002018E0002016E0012B16D00E4B5B6851
:1033200003F48031226A914211D103F47013626A6E
:1033300093420ED1002006E001207047012002E0F8
:10334000012000E0002002B070BD0120FBE7012059
:10335000F9E70120F7E700BF0010024000004242F9
:103360000F4B5B6803F00C02082A01D00D48704730
:10337000C3F383420C49885C13F4803F0BD0084BA5
:103380005B68C3F34043094AD35C064A02FB00F082
:10339000B0FBF3F07047064B03FB00F0704700BF33
:1033A0000010024000127A00D05F0008E05F0008C1
:1033B00000093D00002800F0A08070B50D460446CD
:1033C000524B1B6803F007038B420BD24F4A136822
:1033D00023F007030B431360136803F007038B42CA
:1033E00040F08D80236813F0020F17D013F0040F04
:1033F00004D0474A536843F4E0635360236813F0F2
:10340000080F04D0424A536843F460535360404A63
:10341000536823F0F003A1680B435360236813F053
:10342000010F31D06368012B20D0022B25D0384A00
:10343000126812F0020F64D035494A6822F0030284
:1034400013434B60FEF70EFA0646314B5B6803F000
:103450000C036268B3EB820F16D0FEF703FA801BF1
:1034600041F288339842F0D9032045E0284A126897
:1034700012F4003FE0D101203EE0254A126812F02C
:10348000007FD9D1012037E0204B1B6803F00703F0
:10349000AB420AD91D4A136823F007032B4313607C
:1034A000136803F00703AB422DD1236813F0040F18
:1034B00006D0174A536823F4E063E1680B43536076
:1034C000236813F0080F07D0114A536823F46053A0
:1034D000216943EAC1035360FFF742FF0C4B5B686D
:1034E000C3F303130B4AD35CD8400B4B18600B4B50
:1034F0001868FEF773F9002070BD012070470120A5
:10350000FAE70120F8E70120F6E700BF00200240BB
:1035100000100240B85F00080000002008000020F2
:10352000014B1868704700BF0000002008B5FFF786
:10353000F7FF044B5B68C3F30223034AD35CD84014
:1035400008BD00BF00100240C85F000808B5FFF7C3
:10355000E7FF044B5B68C3F3C223034AD35CD84044
:1035600008BD00BF00100240C85F000870B582B0FF
:103570000446036813F0010F36D03F4BDB6913F0AC
:10358000805F49D13C4BDA6942F08052DA61DB69F5
:1035900003F080530193019B0125384B1B6813F402
:1035A000807F3BD0344B1B6A13F4407313D06268A6
:1035B00002F440729A420ED02F4A136A23F44070EC
:1035C0002F490126C1F840640026C1F8406410620A
:1035D00013F0010F36D1284A136A23F4407361684F
:1035E0000B431362002D3ED1236813F0020F06D067
:1035F000214A536823F44043A1680B435360236876
:1036000013F0100F34D01C4A536823F48003E16890
:103610000B43536000202CE00025BEE7174A1368D7
:1036200043F480731360FEF71DF90646134B1B68C5
:1036300013F4807FB6D1FEF715F9801B6428F5D905
:10364000032016E0FEF70EF906460B4B1B6A13F03B
:10365000020FC0D1FEF706F9801B41F28833984271
:10366000F3D9032005E0D36923F08053D361BBE78E
:10367000002002B070BD00BF00100240007000408A
:103680000000424208B502284ED0102803D001287D
:1036900028D0002008BD2B4B5A68186810F08070A5
:1036A000F8D0C2F383432849C85C12F4803F15D098
:1036B000244B5B68C3F34043244AD25C244BB3FBE6
:1036C000F2F303FB00F01F4B5B6813F4800FE1D1B2
:1036D0004000204BA3FB00304008DBE71E4B03FB00
:1036E00000F0F0E7174B1B6A40F202321A40B2F5C5
:1036F000817F24D003F44073B3F5007F04D0B3F589
:10370000407F09D00020C5E70E4A526A12F0020F2E
:10371000F5D049F64040BDE70A4B186810F4003078
:10372000B8D04FF22440B5E7FFF710FF054B5B68B8
:10373000C3F3813301335B00B0FBF3F0AAE74FF42E
:103740000040A7E700100240E45F0008F45F0008B3
:1037500000127A00ABAAAAAA00093D0070B4036A5D
:10376000026A22F0010202624668826922F0730254
:103770000C6844EA020523F002028B6813430D4CE7
:10378000A04209D00B4CA0420DD0466085614A682A
:103790004263036270BC704723F00803CA68134396
:1037A00023F00403EEE726F440764A6932438E693B
:1037B0001643EAE7002C014030B4036A026A22F49F
:1037C000807202624568C26922F073020C6822436B
:1037D00023F400738C6843EA04230F4CA04209D001
:1037E0000D4CA0420ED04560C2614A68C2630362BC
:1037F00030BC704723F40063CC6843EA042323F40D
:103800008063EDE725F440554C6945EA04158C6961
:1038100045EA0415E7E700BF002C014030B4036A15
:10382000026A22F4805202624468C26922F4E642CB
:103830000D6842EA052223F400538D6843EA0533FC
:10384000074DA84206D04460C2614A680264036220
:1038500030BC704724F480444D6944EA8514F2E793
:10386000002C014010B4036A046A24F001040462CD
:10387000846924F0F00C4CEA021223F00A030B4393
:103880008261036210BC704710B4036A046A24F0BA
:1038900010040462846924F4704C4CEA023223F070
:1038A000A00343EA01138261036210BC704783687E
:1038B00023F070030B4343F007038360704700005D
:1038C00090F83D30DBB2012B27D1022380F83D3048
:1038D0000268D36843F00103D3600368114A93423E
:1038E00010D0B3F1804F0DD0A2F59432934209D09D
:1038F00002F58062934205D01A6842F001021A6014
:10390000002070479A6802F00702062A07D01A685A
:1039100042F001021A600020704701207047002029
:10392000704700BF002C01400268D36823F00103F8
:10393000D3600368196A41F21112114208D1196A61
:1039400040F24442114203D11A6822F001021A6087
:10395000012380F83D300020704770477047704762
:10396000704710B5044603681A6912F0020F11D0AF
:10397000DA6812F0020F0DD06FF002021A61012313
:10398000037703689B6913F0030F70D0FFF7E6FF1E
:103990000023237723681A6912F0040F12D0DA6823
:1039A00012F0040F0ED06FF004021A610223237785
:1039B00023689B6913F4407F5FD02046FFF7CEFF5A
:1039C0000023237723681A6912F0080F12D0DA68EF
:1039D00012F0080F0ED06FF008021A61042323774B
:1039E0002368DB6913F0030F4ED02046FFF7B6FFC4
:1039F0000023237723681A6912F0100F12D0DA68B7
:103A000012F0100F0ED06FF010021A610823237706
:103A10002368DB6913F4407F3DD02046FFF79EFF0B
:103A20000023237723681A6912F0010F03D0DA68A4
:103A300012F0010F36D123681A6912F0800F03D0FB
:103A4000DA6812F0800F34D123681A6912F0400F3F
:103A500003D0DA6812F0400F32D123681A6912F0ED
:103A6000200F03D0DA6812F0200F30D110BDFFF71D
:103A700074FF2046FFF773FF8AE72046FFF76DFFCC
:103A80002046FFF76CFF9BE72046FFF766FF2046C6
:103A9000FFF765FFACE72046FFF75FFF2046FFF723
:103AA0005EFFBDE76FF001021A612046FDF734FDAD
:103AB000C1E76FF080021A61204600F080FAC3E788
:103AC0006FF040021A612046FFF74AFFC5E76FF02A
:103AD00020021A61204600F071FAC7E703681B4A0A
:103AE00090420AD0B0F1804F07D0A2F594329042B4
:103AF00003D002F58062904203D123F070034A683C
:103B00001343124A90420AD0B0F1804F07D0A2F579
:103B10009432904203D002F58062904203D123F4A4
:103B20004073CA68134323F080034A691343036058
:103B30008B68C3620B688362044B984202D00123F6
:103B4000436170470B690363F9E700BF002C014034
:103B500040B310B5044690F83D30F3B1022384F829
:103B60003D30214651F8040BFFF7B8FF012384F8DC
:103B7000463084F83E3084F83F3084F8403084F892
:103B8000413084F8423084F8433084F8443084F87B
:103B9000453084F83D30002010BD80F83C30FDF702
:103BA00011FDDBE70120704740B310B5044690F8E3
:103BB0003D30F3B1022384F83D30214651F8040B27
:103BC000FFF78CFF012384F8463084F83E3084F8F8
:103BD0003F3084F8403084F8413084F8423084F833
:103BE000433084F8443084F8453084F83D30002078
:103BF00010BD80F83C30FDF705FDDBE70120704784
:103C000030B4036A026A22F01002026244688269D8
:103C100022F4E6420D6842EA052223F020038D6873
:103C200043EA05130E4DA84209D00D4DA8420ED00F
:103C3000446082614A688263036230BC704723F04B
:103C40008003CD6843EA051323F04003EDE724F435
:103C500040644D6944EA85048D6944EA8504E7E7D8
:103C6000002C014038B590F83C30012B66D004465A
:103C70000D46012380F83C300C2A5AD8DFE802F0C8
:103C8000075959591B595959305959594400006815
:103C9000FFF764FD2268936943F00803936122688B
:103CA000936923F0040393612268936929690B43A4
:103CB000936100203EE00068FFF7A2FF226893694D
:103CC00043F4006393612268936923F480639361F2
:103CD00022689369296943EA01239361002029E05E
:103CE0000068FFF769FD2268D36943F00803D361D8
:103CF0002268D36923F00403D3612268D369296958
:103D00000B43D361002015E00068FFF787FD2268B0
:103D1000D36943F40063D3612268D36923F48063D9
:103D2000D3612268D369296943EA0123D361002062
:103D300000E00120002384F83C3038BD0220FCE77D
:103D400010B4846824F47F4C42EA03220A4342EA16
:103D50000C02826010BC704790F83C30012B78D088
:103D600010B50446012380F83C30022380F83D3032
:103D70000268936823F47F4323F0770393600B6812
:103D8000602B4CD029D8402B54D00CD9502B22D1A9
:103D9000CA6849680068FFF765FD50212068FFF791
:103DA00086FD002005E0202B0DD009D9302B0AD04C
:103DB0000120012384F83D30002384F83C3010BDFD
:103DC0000BB1102B05D119462068FFF770FD0020BC
:103DD000EFE70120EDE70120EBE7B3F5805F34D09A
:103DE000B3F5005F0CD1CB684A6889680068FFF7BB
:103DF000A7FF2268936843F4804393600020D8E7CC
:103E0000702B24D1CB684A6889680068FFF798FF57
:103E10002268936843F0770393600020C9E7CA687B
:103E200049680068FFF730FD60212068FFF73FFD1B
:103E30000020BEE7CA6849680068FFF713FD40210B
:103E40002068FFF734FD0020B3E70020B1E7012030
:103E5000AFE70220704701F01F01012303FA01FCC4
:103E6000036A23EA0C030362036A02FA01F10B43BB
:103E70000362704710B50446084651BB94F83E30C3
:103E8000DBB2013B18BF0123002B5BD1002839D1E5
:103E9000022384F83E30012201462068FFF7DBFF51
:103EA00023682A4A93423DD02368284A93423ED051
:103EB000B3F1804F3BD0A2F59432934237D002F554
:103EC0008062934233D01A6842F001021A600020E7
:103ED00039E0042908D008290DD094F84130DBB22C
:103EE000013B18BF0123CFE794F83F30DBB2013B21
:103EF00018BF0123C8E794F84030DBB2013B18BF7C
:103F00000123C1E7042805D0082807D0022384F83C
:103F10004130C0E7022384F83F30BCE7022384F835
:103F20004030B8E75A6C42F400425A64BCE79A68E1
:103F300002F00702062A07D01A6842F001021A604E
:103F4000002000E0012010BD0020FCE7002C014013
:103F500090F83C30012B2CD010B4012380F83C3079
:103F6000022380F83D3003685A689C6822F0700C88
:103F70000A6842EA0C025A6003680F4A93420AD068
:103F8000B3F1804F07D0A2F59432934203D002F5EB
:103F90008062934204D124F080044A6814439C60F8
:103FA000012380F83D30002380F83C30184610BCD7
:103FB00070470220704700BF002C014070477047D7
:103FC000F0B585B00023ADF80C300C238DF80B3024
:103FD0002B4C0A25009501230DF10B026C21204684
:103FE000FEF738FD0095022303AA6D212046FEF757
:103FF000EDFD9DF80C309DF80D4044EA0324C4F318
:104000000B04204B1F6900213846FCF74FFDA0B17F
:104010002046FCF7EFF918A3D3E90023FCF798FD3D
:10402000FCF752FA0546174E3060F0604FF07E51B3
:104030003846FCF79FFA306175612046FCF7DAF9E3
:104040000DA3D3E90023FCF783FDFCF73DFA0D4DEA
:10405000E968FCF78DFA044628600021FCF744FD6E
:1040600018B1084B1C6005B0F0BD07492046FCF7AD
:1040700081FA0446F5E700BF8E3BA583F57FB63F86
:10408000CC040020040600200000B443000000001F
:1040900030B583B000240094ADF804400322694693
:1040A0001748FDF71DFD22E002AB03EB440333F894
:1040B000080CFCF79FF90022124BFCF749FD0EA3F8
:1040C000D3E90023FCF744FDFCF7FEF90E4DA31DD8
:1040D00005EB830358600D49FCF74AFA0C49FCF7DD
:1040E00051FB04F10A0345F823000134E4B2022C29
:1040F000DAD903B030BD00BF6666666666660A4000
:10410000580400200000303F040600203333D33F22
:10411000CDCC4C3D2DE9F04F85B00C461546FCF753
:104120007BF906460F462846FCF776F98046894615
:1041300000F0D4FB82468B4602460B463046394699
:10414000FCF706FDCDE900012046FCF765F90446C1
:104150000D464046494600F013FC8946039002464E
:1041600001F1004320462946FCF7F2FC02460B46CB
:10417000DDE90001FBF7F2FFFCF7A6F9DFF83C8070
:10418000C8F83800039A4B4630463946FCF7E0FC45
:1041900006460F4622462B4650465946FCF7D8FCA9
:1041A00002460B4630463946FBF7D8FFFCF78CF940
:1041B000C8F83C0005B0BDE8F08F00BFB405002092
:1041C0002DE9F04F89B020220021684600F0C4FAA2
:1041D000AF4BDF6BD3F83880AE494046FCF7D2FADC
:1041E00005464FF07C513846FCF7CCFA04460146B0
:1041F0002846FCF7BDF90646A7494046FCF7C2FA37
:104200002146FCF7B5F9054600213846FCF776FC57
:1042100000285ED0042400213046FCF76FFC002803
:1042200059D002231C444FF0010800212846FCF716
:1042300065FC08B94FF000085FFA88F84444E4B21E
:10424000052C4AD0042C00F08F80062C00F0D98079
:10425000022C00F02781032C00F07181012C00F06A
:10426000B5818B4C8D496068FCF78CFA4FF07C511E
:10427000FCF788FA01468A48FCF77AF9FCF748FC13
:1042800085B225828549A068FCF77CFA4FF07C5105
:10429000FCF778FA01468248FCF76AF9FCF738FC2B
:1042A00086B266827D49E068FCF76CFA4FF07C517B
:1042B000FCF768FA01467A48FCF75AF9FCF728FC43
:1042C00082B2A28231462846FDF75AFA09B0BDE80B
:1042D000F08F00249FE70023A4E76D4B01221A70A2
:1042E0000495069729463846FCF744F980464FF076
:1042F0007E51FCF703FC78B141464FF07E50FCF74D
:10430000F5FA804601462846FCF73CFA04904146FF
:104310003846FCF737FA0690DDF8109049464FF022
:104320007E50FCF725F9DDF818A05146FCF720F97E
:104330004FF07C51FCF726FA8046009007905146DA
:104340004846FCF717F901464046FCF713F9DFF839
:104350004091C9F8040041465046FCF70BF9C9F8F2
:104360000800C9F80C806DE7494B02221A7005F16C
:10437000004ACDF808A006F10048CDF8188029467B
:104380004046FCF7F5F881464FF07E51FCF7B6FB4E
:1043900078B149464FF07E50FCF7A8FA81460146B5
:1043A0005046FCF7EFF9029049464046FCF7EAF91F
:1043B0000690DDF808B059464FF07E50FCF7D8F86B
:1043C000DDF818A05146FCF7D3F84FF07C51FCF70C
:1043D000D9F980460090079001465046FCF7CAF88C
:1043E000DFF8AC90C9F8040051465846FCF7C2F813
:1043F00001464046FCF7BEF8C9F80800C9F80C8031
:1044000023E7234B03221A7002970396314638465E
:10441000FCF7B0F880464FF07E51FCF76FFB78B1A7
:1044200041464FF07E50FCF761FA8046014638461F
:10443000FCF7A8F9029041463046FCF7A3F9039037
:10444000DDF808B059464FF07E50FCF791F8DDF8E2
:104450000CA05146FCF78CF84FF07C51FCF792F918
:10446000804600900790DFF82890C9F80400514674
:104470005846FCF77FF801464046FCF77BF8C9F840
:10448000080041465046FCF775F8C9F80C00DFE615
:10449000B40500202DB25DBF2DB25D3F00007A440F
:1044A0000080F9436C4B04221A7007F10048CDF8E4
:1044B000048005F1004ACDF80CA029464046FCF7DF
:1044C00057F881464FF07E51FCF718FB78B149460A
:1044D0004FF07E50FCF70AFA814601464046FCF751
:1044E00051F9019049465046FCF74CF90390DDF82C
:1044F00004B059464FF07E50FCF73AF8DDF80CA0B6
:104500005146FCF735F84FF07C51FCF73BF98046FB
:1045100000900790DFF84091C9F80400014650462A
:10452000FCF728F8C9F8080051465846FCF722F86D
:1045300001464046FCF71EF8C9F80C008BE6464BD6
:1045400005221A700196059529463046FCF712F8A7
:1045500080464FF07E51FCF7D1FA78B141464FF0DA
:104560007E50FCF7C3F9804601463046FCF70AF955
:10457000019041462846FCF705F90590DDF804A0B6
:1045800051464FF07E50FBF7F3FFDDF8149049469B
:10459000FBF7EEFF4FF07C51FCF7F4F80546009076
:1045A000079001464846FBF7E5FFDFF8AC80C8F806
:1045B0000400C8F8085049465046FBF7DBFF0146A7
:1045C0002846FBF7D7FFC8F80C0047E6224B062227
:1045D0001A7006F10045049507F10047059731462A
:1045E0003846FBF7C5FF04464FF07E51FCF786FACC
:1045F00078B121464FF07E50FCF778F90446014629
:104600002846FCF7BFF8049021463846FCF7BAF874
:104610000590049D29464FF07E50FBF7A9FF059EAB
:104620003146FBF7A5FF4FF07C51FCF7ABF8044691
:104630000090079031462846FBF79CFF0146204634
:10464000FBF798FF044D6860AC6021463046FBF7ED
:1046500091FFE86005E600BFB405002008B501221F
:1046600008210248FDF7ACFE08BD00BF000801406C
:1046700038B5114D2C6895F83400FCF72FF8214619
:10468000FCF780F80D49FCF77DF80446A8600C495A
:10469000FCF734FA00B938BD2046FBF7BDFE04A391
:1046A000D3E9002300F0C4F9FBF70EFFA860F2E79E
:1046B0001F85EB51B81E1940040600204DF38E3CB7
:1046C000C3F5C84008B5FFF7C9FF00210A464FF0FF
:1046D0008240FFF71FFDFDF741F8FFF771FD322023
:1046E000FDF7C6F8FFF76CFCFFF7C2FF08BD00003E
:1046F00008B5034B072283F83420FFF7E3FF08BD1A
:1047000004060020014B1868704700BF0C00002011
:1047100070B50D4E0D4D761BB61006D0002455F821
:10472000043B01349847A642F9D1094E094D01F0E6
:1047300035FC761BB61006D0002455F8043B013436
:104740009847A642F9D170BDE8610008E861000809
:10475000F0610008E8610008830730B548D0541EB6
:10476000002A3FD00346CAB201E0013C3AD303F825
:10477000012B9D07F9D1032C2DD9CDB245EA052592
:104780000F2C45EA054536D9A4F1100222F00F0C92
:1047900003F1200EE6444FEA121C03F1100242E935
:1047A000045542E9025510327245F8D10CF101026C
:1047B00014F00C0F03EB021204F00F0C13D0ACF149
:1047C000040323F003030433134442F8045B9342CD
:1047D000FBD10CF003042CB1CAB21C4403F8012B2A
:1047E0009C42FBD130BD64461346002CF4D1F9E75E
:1047F00003461446BFE71A46A446E0E7024B13B14E
:10480000024800F005B87047000000001D4800088D
:10481000002301461A46184600F01AB838B5084B6E
:10482000084D5B1B9C1007D0043B1D44013C55F810
:1048300004399847002CF9D1BDE8384001F0B4BBE9
:10484000F4610008F0610008704700BF704700BFC6
:104850002DE9F047DFF87CA00646DAF8000098461C
:104860000F469146FFF7F0FF1B4B1B68D3F84841FA
:1048700024B365681F2D26DC5EB96B1C0235DAF89F
:104880000000636044F82570FFF7E0FF0020BDE8FA
:10489000F087012304EB8501C1F88890D4F88821C2
:1048A000AB401A43022EC4F88821C1F80881E4D134
:1048B000D4F88C211343C4F88C31DEE703F5A674D9
:1048C000C3F84841D5E7DAF80000FFF7BFFF4FF023
:1048D000FF30DCE738040020F85F000810B5264CF4
:1048E00021F00043A34286B021DD244A934209DD32
:1048F00002460B46FBF730FC02460B4610461946B3
:1049000006B010BD02AA00F00BFA00F00300012867
:1049100014D0022826D0E0B1DDE90423DDE902014C
:104920000124009401F078F902460B46E6E70022E4
:10493000002306B0BDE8104000F01EBCDDE90423F2
:104940000090DDE9020101F067F9024601F1004340
:10495000D4E7DDE90423DDE9020100F00DFC0246A5
:104960000B46CBE7DDE90423DDE9020100F004FC9E
:10497000024601F10043C1E7FB21E93FFFFFEF7F62
:1049800010B5294C21F00043A34286B020DD274A10
:10499000934209DD02460B46FBF7DEFB02460B465F
:1049A0001046194606B010BD02AA00F0B9F900F091
:1049B0000300012818D002282AD0F0B1DDE9042331
:1049C000DDE9020100F0D8FB024601F10043E7E710
:1049D000002400220023009401F01EF902460B4639
:1049E0001046194606B010BDDDE90423DDE90201D9
:1049F00000F0C2FB02460B46D2E70124DDE90423A6
:104A0000DDE90201009401F007F902460B46C7E711
:104A10000124DDE90423DDE90201009401F0FCF842
:104A2000024601F10043BBE7FB21E93FFFFFEF7FB7
:104A30002DE9F8438046894614461D4600F024F8C7
:104A4000224606460F46404649462B46FCF71AFBCF
:104A500030B92046294600220023FCF7E1FA18B9B4
:104A600030463946BDE8F883FFF74CFE00220023AC
:104A70002121016010461946FCF794F906460F46BD
:104A800030463946BDE8F8832DE9F84323F0004766
:104A90009E469C4657EA0203054690462FD0104694
:104AA0001446984A21F0004991450B4627DC4242C2
:104AB000954E024347EAD272B24220D8B945AE467B
:104AC0002A4601F0004606DCC0F2CB804545C0F026
:104AD000C88000F0FF808C491940F9B9B9F1000F86
:104AE00040F0E280BEF1000F754640F30881A1F26C
:104AF00013416D00002D01F1FF31FADC12E0734625
:104B000042462846FCF724F80B460246FCF74AF9D1
:104B100005460B4628461946BDE8F8834FEA295159
:104B2000A1F2FF31784D0CEA050585B9002F40F060
:104B3000AC800028804640F3E080A5F213454FEAA0
:104B40004808B8F1000F05F1FF35F8DC02E03D152B
:104B5000A5F2FF35DFF8B481414572DBC3F31303DF
:104B600043F48013DFF8A4E1754559DBCCF3130C53
:104B70004CF4801C101A491B0BD11DE050EA0E03A7
:104B800044D04FEADE73013903EB40034FEA4E0293
:104B900011D0A3EB0C00944288BF00F1FF30002835
:104BA000A2EB040E4FEAD277E8DA013907EB4303B0
:104BB0004FEA4202EDD1101BA3EB0C0C944288BFCC
:104BC0000CF1FF3CBCF1000FA4BF0246634653EA60
:104BD000020105D11AE0D10F01EB43035200013D60
:104BE000B3F5801FF7DB49498D4269DA491B142967
:104BF00076DC05F21E40CA4003FA00F043FA01F1E8
:104C00000E4340EA02031D46334683E7404BF60F4E
:104C100003EBC606D6E9005328461946BDE8F883DB
:104C2000AEEB05041F2C24DD3A4C491BA4EB050C0C
:104C300000FA0CFC18BF0024ABD11046A3EB0C0CFF
:104C4000C0E7A8EB0108B8F11F0F0CDC01F21E430E
:104C500009FA08F92EFA03F30EFA08F243EA0903F7
:104C600080E70B4656E72B4B00225B1A0EFA03F344
:104C700078E705F21E4C07FA04FE00FA04F420FA65
:104C80000CF040EA0E0C101B75E74FEAC728B8F18C
:104C9000000F1E4D7FF75EAF4FEA4808B8F1000FD6
:104CA00005F1FF35F8DC55E74FEAC925002D174916
:104CB0007FF738AF6D00002D01F1FF31FADC31E7ED
:104CC000A3F580131E4305F2FF3546EA05510B4656
:104CD00015461FE70E4B03EB1676D6E9005319E78E
:104CE0001F2906DC05F21E4522FA01F1AB400B43F9
:104CF00089E70849491B0B4185E7074D2AE7064923
:104D000010E700BFFFFFEF7F0000F07F02FCFFFF16
:104D100000600008E2FBFFFFEDFBFFFF000000006A
:104D20002DE9F04FDFF838C221F000456545064611
:104D300014468FB040F385808A4A0F46954226DCA0
:104D40007DA3D3E90023002940F3C081FBF704FAD7
:104D5000854B80469D42894600F08A8078A3D3E93E
:104D60000023FBF7F9F902460B464046C4E900234D
:104D70004946FBF7F1F972A3D3E90023FBF7ECF9FD
:104D80000126C4E9020130460FB0BDE8F08F774A32
:104D9000954240F38D80764A95425FDC4FEA255874
:104DA000A8F21648A5EB08518B46FCF781F9FBF7F2
:104DB00021FB02460B4630465946CDE90823FBF756
:104DC000CBF900226B4BFBF7C3FE8B468246FCF708
:104DD0006FF90546FBF70EFB02460B465046594657
:104DE000CDE90A23FBF7B8F90022624BFBF7B0FECE
:104DF00002460B46CDE90C2300220023FCF710F9F4
:104E0000002800F06181002D0CBF01230223022540
:104E100059494246019108A82146009500F0D4FA6C
:104E2000002F0646AFDAD4E9000505F10041C4E9D8
:104E30000001E168A26801F10043C4E9022376425F
:104E4000A1E700264FF000084FF00009C2E9000179
:104E50003046C2E902890FB0BDE8F08F02460B462A
:104E6000FBF77AF90026C4E90201C4E900018AE7E8
:104E700035A3D3E90023FBF76FF935A3D3E900236A
:104E800080468946FBF768F902460B464046C4E96E
:104E900000234946FBF760F92DA3D3E90023FBF774
:104EA0005BF90126C4E9020130460FB0BDE8F08F7E
:104EB00000F074FF28A3D3E9002380468946FBF75E
:104EC00047FE00222D4BFBF749F9FCF7F1F80646A7
:104ED000FBF790FA18A3D3E9002382468B46CDE96D
:104EE00004ABFBF735FE02460B4640464946FBF74E
:104EF00033F913A3D3E90023CDE902015046594603
:104F0000FBF726FE1F2E804689463BDC1C4B721E9B
:104F100053F82230AB4235D002460B46DDE90201A0
:104F2000FBF71AF902460B4682468B46C4E900237A
:104F3000AEE000BFAFF3008000004054FB21F93F1A
:104F40003163621A61B4D03D0000601A61B4D03D93
:104F50007370032E8A19A33B83C8C96D305FE43F89
:104F6000FB21E93F7BD90240FB21F93FFB2139417D
:104F7000FFFFEF7F00007041906000080000E03FFD
:104F8000106000082B1507934246DDE902014B46ED
:104F9000FBF7E2F8C1F30A53C3EB1555102D8B460E
:104FA000824671DD68A3D3E90023DDE90401FBF744
:104FB000CFFDDDE902AB8046894642464B4650466E
:104FC0005946FBF7C9F802460B46504659469246E9
:104FD0009B46FBF7C1F842464B46FBF7BDF85CA386
:104FE000D3E9002380468946DDE90401FBF7B0FDE3
:104FF00042464B46FBF7B0F8804689465046594634
:1050000042464B46CDE902ABFBF7A6F8079AC1F33F
:105010000A53D31A312B8B46824635DD4EA3D3E992
:105020000023DDE90401FBF793FDDDE902AB8046D7
:10503000894642464B4650465946FBF78DF8024694
:105040000B465046594692469B46CDE902ABFBF7CC
:1050500083F842464B46FBF77FF841A3D3E9002390
:1050600080468946DDE90401FBF772FD42464B4666
:10507000FBF772F8804689465046594642464B46F1
:10508000FBF76AF88B46824652465B46C4E900232A
:10509000DDE9020152465B46FBF75EF842464B46AD
:1050A000FBF75AF802460B46002FC4E90223BFF66D
:1050B0006AAE0BF1004301F10041A0606360E16062
:1050C0007642C4F800A05EE60323A0E6FBF746F8AC
:1050D000274B80469D42894616D023A3D3E900235F
:1050E000FBF73CF802460B464046C4E9002349461C
:1050F000FBF732F81CA3D3E90023FBF72FF84FF09E
:10510000FF36C4E902013EE60FA3D3E90023FBF713
:1051100025F80FA3D3E9002380468946FBF71EF844
:1051200002460B464046C4E900234946FBF714F803
:1051300007A3D3E90023FBF711F84FF0FF36C4E9CA
:10514000020120E6AFF300800000601A61B4D03D98
:105150007370032E8A19A33B0000002E8A19A33B0B
:10516000C14920259A837B393163621A61B4D03DED
:10517000FB21F93F000000002DE9F04F21F000462F
:10518000B6F1795F92469B460C46054685B06DDACE
:10519000FBF78EFF002800F0EB802A4623462846C6
:1051A0002146FBF7D5FC76A3D3E900238046894648
:1051B000FBF7CEFC74A3D3E90023FAF7CFFF4246F6
:1051C0004B46FBF7C5FC72A3D3E90023FAF7C4FFF3
:1051D00042464B46FBF7BCFC6FA3D3E90023FAF72A
:1051E000BDFF42464B46FBF7B3FC6DA3D3E900235A
:1051F000FAF7B2FF42464B46FBF7AAFC6AA3D3E993
:105200000023FAF7ABFF42464B46FBF7A1FCCDE982
:105210000001002240464946654BFBF799FCDDE959
:10522000002306460F4640464946FBF791FCA84638
:10523000A14652465B4604460D4640464946FBF7AA
:1052400087FC02460B4620462946FAF785FF0246B0
:105250000B4630463946FAF77FFF02460B460020E0
:105260005449FAF779FF05B0BDE8F08F02460B46C6
:10527000FBF76EFC42A3D3E9002380468946FBF787
:1052800067FC41A3D3E90023FAF768FF42464B4687
:10529000FBF75EFC3EA3D3E90023FAF75DFF42462D
:1052A0004B46FBF755FC3CA3D3E90023FAF756FF26
:1052B00042464B46FBF74CFC39A3D3E90023FAF7EF
:1052C0004BFF42464B46FBF743FC37A3D3E9002391
:1052D000FAF744FF4B464246FBF73AFC364BCDE922
:1052E00000019E4295DD354B00229E423ADCA6F538
:1052F000001300202F4916461F46FAF72DFFCDE96F
:105300000201002240464946294BFBF721FC324668
:105310003B46FAF721FFDDE9002306460F464046EB
:105320004946FBF715FCA846A14652465B46044693
:105330000D4640464946FBF70BFC02460B4620460D
:105340002946FAF709FF02460B4630463946FAF776
:1053500003FF02460B46DDE90201FAF7FDFE05B048
:10536000BDE8F08F164B0026CDE90223154FC8E7A4
:105370000020104905B0BDE8F08F00BFAFF30080FA
:10538000D43888BEE9FAA8BDC4B1B4BD9EEE213EB2
:10539000AD529C804F7E923E9015CB19A001FA3EF3
:1053A0007751C1166CC1563F4C5555555555A53FC3
:1053B0000000E03F0000F03F3233D33F0000E93F00
:1053C0000000E73F0000D23F2DE9F04FADF5197D19
:1053D000B84CA29D089354F82540013B12F1140FDC
:1053E000074605940B910393C0F24283B249D31E42
:1053F00081FB0301DB17C3EBA10307930133A3EB8D
:105400008303DB00D3180693079A039BD61A059AE9
:1054100012EB03091BD409F1010900240025DDF872
:105420008CA2B1440DF1800808E05AF82600FAF782
:10543000E1FF01364E45E8E8020108D0002EF4DA1B
:105440002046294601364E45E8E80201F6D1059B83
:10545000002BC0F2BC83089B20AA02EBC30ADA002F
:105460000292059AA7F108011A44DDF80C90049104
:105470000DF5E07B019201EBC308039B002BC0F20A
:10548000AE81574600240025049E77E90223F6E901
:105490000201FBF75DFB02460B4620462946FAF760
:1054A0005DFE464504460D46EFD1019B09F1010919
:1054B0009945EBE802450AF1080ADED1049BDDF8C4
:1054C00008B00BAA9B44059B02EB83020A920CAA2C
:1054D000019302EB8303083B0993019A98AB03EB1A
:1054E000C203002A53E9284529DD0DF5E07A0DF1C4
:1054F00030090AEBC2080022704B20462946FBF710
:1055000027FBFBF7D5FDFAF775FF00226C4B06462B
:105510000F46FBF71DFB02460B4620462946FAF7CD
:105520001BFEFBF7C5FD78E9022349F8040B394659
:105530003046FAF713FED04504460D46DBD1DDF8C0
:105540001890204629464A4600F0AAFC00224FF057
:105550007F5304460D46FBF7FBFA00F025FC0022C2
:10556000584BFBF7F5FA02460B4620462946FAF758
:10557000F3FD0D460446FBF79BFD8046FAF73AFF24
:105580000B46024629462046FAF7E6FD4B46002B1D
:1055900006460F4640F39880019A0CA9013A51F84B
:1055A0002250C9F1180345FA03F101FA03F3ED1A89
:1055B0000CAB43F82250C9F117031D41002D88445C
:1055C00000F38C800022002330463946FBF728FD8B
:1055D000002800F05482019B059A03F1FF3A5245DE
:1055E00010DC002203F18043013B0CA90A9801EB77
:1055F000830353F80419834242EA0102F9D1002AD5
:1056000040F0F080059B0CAA013B52F82330002BA0
:1056100040F0E0800123099A52F80419013300296F
:10562000FAD0019AD3180293531C9946DDF80480EE
:10563000089A9044079A02EB030A0AF1804AA39A57
:105640000AF1FF3A02EB8A0A20AA02EBC80870AA04
:1056500002EBC30301935AF8040FFAF7CBFE039B46
:105660004746002B08F1080848E902011FDB002427
:105670000025049E083F01E077E80201F6E90223D5
:10568000FBF766FA02460B4620462946FAF766FD06
:105690005E4504460D46EFD1019B09F10109E3E89F
:1056A00002450193029B9945D5DD019315E700243E
:1056B0000025F1E7D8610008ABAAAA2A0000703ED5
:1056C00000007041000020406BD1019B0CAA013BFF
:1056D00052F82350ED15002D7FF774AF019B08F1B0
:1056E0000108002B40F3C9810C9C002C51D1019B77
:1056F000012B20D001220CAB53F8044F002C4BD0CF
:10570000531C0CA9C4F1807441F8224001999942BC
:1057100010DD0CAC0CAA52F823206FF07F4004EB94
:10572000830304EB810100E01A68821A43F8042B1A
:105730008B42F9D10124069B002B0EDD012B00F0DA
:105740008C81022B09D1019B0CA95A1E0CAB53F87A
:105750002230C3F3150341F82230022D7FF432AF1B
:1057600032463B4600207A49FAF7F6FC06460F46D9
:10577000002C3FF427AF069A0020754900F090FBFB
:1057800002460B4630463946FAF7E6FC06460F4617
:1057900018E701230022B4E7019901328A42ABD114
:1057A000C9E700226B4BFBF759FC054600283FF484
:1057B00009AF019B08F10108002BC8BF022593DC4B
:1057C00032463B4600206249FAF7C6FC02250646EF
:1057D0000F46F7E6019B01339946029326E7002422
:1057E000002562E6069B0395A3F118020CAB53F863
:1057F0002A30CDF81C80069273B9019B0CA903F1E5
:105800008043023B01EB830353F804190AF1FF3A8A
:10581000183A0029F8D006920020069A4C4900F068
:105820003FFBBAF1000F04460D46C0F2D7814FF09E
:10583000000870AB03EBCA0B0CAA0AF10103069334
:1058400002EB8306DFF810914FEACA0304930BF1D1
:10585000080756F8040DFAF7CDFD22462B46FBF754
:1058600077F94B4667E90201424620462946FBF795
:105870006FF90CAB9E4204460D46EAD148ABCDE928
:10588000013ADDF814A04FF00009BAF1000F2CDB4B
:105890002DA3D3E900235F46002600240025DFF86E
:1058A000BC8003E0B14510DBF8E80223F7E8020111
:1058B000FBF74EF902460B4620462946FAF74EFC06
:1058C0000136B24504460D46ECDA019B029A03EB21
:1058D000C9039145C3E90045ABF1080B09F1010388
:1058E00006D0BAF1000F9946D2DA00240025ECE781
:1058F000A29BDDF808A0022B32DC002B00F3F28023
:1059000018D1A29B049D1C46019E083535441846BB
:1059100075E902232146FAF721FCAE4203460C4604
:10592000F5D1039A0AB104F10044184621460B9BB5
:10593000C3E90001079B03F007000DF5197DBDE8E1
:10594000F08F00BFAFF3008000000040FB21F93F63
:105950000000F03F0000E03F0000703EA061000842
:10596000A29B032BE6D1BAF1000F00F04D81019B01
:10597000049A13449B46D3E900455BE9026720463D
:10598000294632463B46FAF7E9FBA046A9460446BB
:105990000D4622462B4630463946FAF7DDFB4B468C
:1059A0004246FAF7DBFBCBE900016BE90245019BBC
:1059B0005B45E2D1BAF1010F40F32681049B019AC5
:1059C0000DF5947B13449A46D3E9004502935AE9B6
:1059D00002672046294632463B46FAF7BFFBA046FF
:1059E000A94604460D4622462B4630463946FAF76C
:1059F000B3FB42464B46FAF7B1FBCAE900016AE93C
:105A00000245D345E3D100231E46029C019A083487
:105A100002F11005184674E902233146FAF79EFB9D
:105A2000A54203460E46F5D1039A002A40F0A48011
:105A3000184631460B9C019BC4E90401D3E90223BB
:105A4000C4E90223DDE94823C4E90023079B03F0EE
:105A500007000DF5197DBDE8F08F019B0CA95A1EBA
:105A60000CAB53F82230C3F3160341F8223074E62E
:105A700000216FF017030791C4E400245BE6069C45
:105A80003046394662420395CDF81C8000F008FA92
:105A900000225F4B06460F46FBF7E0FA002861D074
:105AA00000225C4B1834304639460694FBF750F818
:105AB000FBF7FEFA0446FAF79DFC0022544BFBF775
:105AC00047F80B46024639463046FAF745FBFBF7E6
:105AD000EFFA019D0CAB05F1010A43F8250043F8EC
